:020000040800F2
:10000000D8040020C10100082B1100088D10000841
:1000100029110008CD020008191500080000000091
:100020000000000000000000000000009D1100081A
:1000300081030008000000002D1100089F11000836
:10004000DB010008DB010008DB010008DB01000820
:10005000DB010008DB010008DB010008DB01000810
:10006000DB010008DB010008DB010008DB01000800
:10007000DB010008DB010008DB010008DB010008F0
:10008000DB010008DB010008DB010008DB010008E0
:10009000DB010008DB010008DB010008DB010008D0
:1000A000DB010008DB010008DB010008DB010008C0
:1000B000DB010008DB010008DB010008DB010008B0
:1000C000DB010008DB010008DB010008DB010008A0
:1000D000DB0100082D140008DB010008DB0100082B
:1000E000DB010008DB010008DB010008DB01000880
:1000F000DB010008DB010008DB010008DB01000870
:10010000DB010008DB010008DB010008DB0100085F
:10011000DB010008DB010008DB010008DB0100084F
:10012000DB010008DB010008D1020008DB01000848
:10013000DB010008DB010008DB010008DB0100082F
:10014000DB010008DB010008DB010008DB0100081F
:10015000DB010008DB010008DB010008DB0100080F
:10016000DB010008DB010008DB010008DB010008FF
:10017000DB010008DB010008DB01000800000000D3
:10018000DB010008DB010008DB010008DB010008DF
:10019000DB010008DB010008DB010008DB010008CF
:1001A0000000000000000000DB010008DFF80CD0B8
:1001B00000F07AF80048004759150008D8040020DC
:1001C0000648804706480047FEE7FEE7FEE7FEE7F1
:1001D000FEE7FEE7FEE7FEE7FEE7FEE7291200087E
:1001E000AD0100082DE9F05F0546002092469B46D0
:1001F00088460646814640241BE02846414647463D
:10020000224600F041F853465A46C01A914110D395
:1002100011461846224600F028F82D1A67EB01080F
:100220004F4622460120002100F01FF817EB00097D
:100230004E41201EA4F10104DFDC484631462A4627
:100240004346BDE8F09FD2B201E000F8012B491E01
:10025000FBD270470022F6E710B513460A46044663
:100260001946FFF7F0FF204610BD202A04DB203A94
:1002700000FA02F1002070479140C2F1200320FAF9
:1002800003F3194390407047202A04DB203A21FAF7
:1002900002F00021704721FA02F3D040C2F120029F
:1002A0009140084319467047064C074D06E0E06848
:1002B00040F0010394E8070098471034AC42F6D3AD
:1002C000FFF778FFAC150008CC150008FEE700002A
:1002D000014800F057B800006400002001681823AE
:1002E000CAB2103AB2FBF3F2054B6FF30901032ACD
:1002F0009B5CC36500D9091D8165084670470000F5
:100300008C15000810B5014600208B698A6A4FF0F1
:10031000C07453B1B3F5005F15D072B1012A0CD08F
:10032000022A0AD0032A09D104E01AB1012A06D010
:10033000022A03D1C96AC90100D5012010BDC96ACA
:10034000A142FAD010BD002AF7D0012AF2D0022A29
:10035000F3D0032AF3D010BD30B50468256825F426
:1003600080252560046863608368402B036803D0A0
:1003700099600068C26030BD9A600068C16030BD9D
:10038000704770472DE9F84304464FF00009CDF857
:10039000009063484FF41651A56D0068B0FBF1F76B
:1003A0002E6894F85C10082000FA01F131420FD059
:1003B00021680A6852070BD50A6822F004020A6015
:1003C00094F85C108840A860606D40F001006065A2
:1003D00094F85C104FF0010808FA01F0304208D0A0
:1003E00021684969090604D5A860606D40F00200E3
:1003F000606594F85C1004208840304208D0216881
:100400000968890704D5A860606D40F00400606544
:1004100094F85C1010208840304218D02168096898
:10042000090714D5A86020680168490304D500684D
:10043000000308D5A16C07E00168C90503D4016871
:1004400021F008010160216C09B12046884794F829
:100450005C1020208840304231D021680968C906EC
:100460002DD5A86094F8350005282068016806D0CD
:10047000490347D5006800031DD4616C1CE021F0DE
:10048000160101602068416921F080014161206C02
:1004900008B9A06C20B12068016821F00801016052
:1004A00094F85C103F208840A86084F8349084F869
:1004B0003580216D1FE0E16B09B120468847606DF2
:1004C00000282BD0606DC00714D0052084F83500BB
:1004D0002068016821F0010101600098401C009033
:1004E000B84203D820680068C007F6D184F8349079
:1004F00084F83580E16C002910D001B02046BDE8B9
:10050000F04308470168C905D5D4016821F01001FE
:10051000016084F8349084F83580CCE7BDE8F88336
:100520000C0000202DE9F041044600F087F9064652
:100530005CB1002584F83450022084F8350020682E
:10054000016821F0010101600DE00120BDE8F081AA
:1005500000F074F9801B052805D920206065032070
:1005600084F83500F2E720680068C007F0D12268FF
:10057000116820480140D4E901031843D4E9033647
:100580003343184363691843A3691843E369184365
:10059000236A18430843616A042903D1D4E90B1381
:1005A00019430843106020684069666A20F007011B
:1005B00030460E43012704280CD1A06A0643E06AA6
:1005C00040B12046FFF79EFE20B14020606584F8D0
:1005D0003570BAE7206846612046FFF77FFE94F841
:1005E0005C203F2191408160656584F83570002072
:1005F000ACE700003F8010F02DE9F0410446866D25
:1006000090F83400002501280DD0012084F8340032
:1006100094F835700020012F07D084F834000225AB
:100620002846BDE8F0810220FBE7022784F83570F8
:1006300060652046FFF790FE94F85C103F208840EC
:10064000B0602068016841F016010160206C20B1A3
:100650002068016841F0080101602068016841F0EC
:1006600001010160DCE700002DE9F84F00224FF0A6
:10067000010803254FF00F0E0B6808FA02F423401F
:10068000A3426ED14E68012E05D0022E03D0112E4A
:1006900001D0122E12D186684FEA420C05FA0CF7EF
:1006A000BE43CF6807FA0CF7374387604668A64316
:1006B0000C79C4F30014944034434460C668570076
:1006C00005FA07FC8C6826EA0C06BC403443C4607B
:1006D0004C68022C01D0122C13D1D40800EB8404F6
:1006E000A346D4F8209054074FEAD46A0EFA0AF6CB
:1006F00029EA06090E6906FA0AF646EA0906CBF85F
:10070000206004680E7924EA0C0406F00306BE405B
:10071000264306604C68E4006FD53B4C266846F4DF
:1007200080462660246822F0030604F48044009486
:10073000364C3444A446D4F808489607360F0EFACF
:1007400006F7BC43324FB84201D100272EE0314FAB
:10075000B84201D1012729E02F4FB84202D1022728
:1007600024E04AE02D4FB84201D103271EE02C4F70
:10077000B84201D1042719E02A4FB84201D1052718
:1007800014E0294FB84201D106270FE0274FB842A5
:1007900001D107270AE0264FB84201D1082705E01A
:1007A000244FB84201D1092700E00A27B740274368
:1007B000CCF80878204E34684F689C43FF0300D57E
:1007C0001C4334601C4E361D34684F689C43BF0385
:1007D00000D51C433460184E083634684F689C437B
:1007E000FF0200D51C433460134E0C3634684F684A
:1007F0009C43BF0200D51C433460521C102AFFF4F6
:100800003BAFBDE8F88F00004438024000300140A3
:10081000000002400004024000080240000C0240B8
:10082000001002400014024000180240001C024068
:100830000020024000240240003C01400148806842
:1008400070470000000000200248816802781144CF
:1008500081607047000000200B4810B5016841F42A
:1008600000710160016841F480610160016841F438
:1008700080710160032000F06FF8002000F006F89E
:1008800000F024F8002010BD003C024070B50D4D72
:1008900004464FF47A712878B1FBF0F00A490968F0
:1008A000B1FBF0F000F004FB48B9102C07D2002295
:1008B0002146501E00F030F800206C6070BD012011
:1008C00070BD0000000000200C0000200A4808B5A0
:1008D000016841F480410160006800F480400090AC
:1008E0000548001F016841F080510160006800F078
:1008F0008050009008BD000044380240002809DB09
:1009000000F01F02012191404009800000F1E02029
:10091000C0F8001170470000F0B40E4B1B680C4685
:10092000C3F30223C3F10705042D00D90425191DC3
:10093000072901D2002300E0DB1E012606FA05F19B
:10094000491E214099409E40761E16403143F0BC1E
:1009500000F0E3BD0CED00E0064900F00702086876
:100960004FF6FF03184040EA0220034A1043086094
:10097000704700000CED00E00000FA052DE9F0479B
:100980000E46050065D0DFF81481D8F80000F7B2F4
:1009900000F00F00B04207D288F80070D8F80000CD
:1009A00000F00F00B04254D128683D4C810712D5A9
:1009B000400703D5206840F4E05020602878000705
:1009C00003D5206840F4604020602068A96820F0CA
:1009D000F000084320602878C0072DD030496868AF
:1009E0000839012812D0022813D0032811D0096831
:1009F000890700292DDA216821F0030101432160D4
:100A0000FFF71CFF814641F2883A0EE0096889032E
:100A1000EFE709688901ECE7FFF710FFA0EB090198
:100A2000514502D90320BDE8F0872068696800F0CD
:100A30000C00B0EB810FEFD1D8F80010404601F068
:100A40000F01B14207D90770006800F00F00B042F3
:100A500001D00120E7E72878400705D52068E9683C
:100A600020F4E050084320602878000706D520686D
:100A7000296920F4604040EAC100206000F038F8A5
:100A80002168084AC1F30311515CC8400649086057
:100A900006480068FFF7FAFE0020C4E7003C024069
:100AA00008380240941500080C00002004000020C3
:100AB0000448054900680968044AC1F38221515C71
:100AC000C84070470C00002008380240A4150008F8
:100AD0000448054900680968044AC1F34231515C81
:100AE000C84070470C00002008380240A4150008D8
:100AF000154810B5006810F00C02144813D01449C2
:100B0000042A0FD0082A0ED10F4C241F2268236814
:100B100002F03F025B0207D52068C0F38810A0FBFB
:100B2000010106E0084610BD2168C1F38811A1FB50
:100B300000010023FFF756FB2168C1F30141491C66
:100B40004900B0FBF1F010BD083802400024F40069
:100B5000001BB7002DE9F84F040076D02078DFF8AD
:100B600038A3CE4DC00749D0DAF800105046C1F383
:100B70008101012908D00068C0F3810002280AD150
:100B8000281D0068400206D52868800336D56068B5
:100B90000028E2D032E06068B0F5803F10D0B0F5B8
:100BA000A02F286810D020F480302860286820F416
:100BB000802028606068A0B1FFF740FE06460CE088
:100BC000286840F48030F4E740F480202860F7E79C
:100BD000FFF734FE801B642873D828688003F7D59C
:100BE0000CE0FFF72BFE064605E000BFFFF726FEF0
:100BF000801B6428F0D828688003F7D42078DFF8B9
:100C0000A08280074FF000093ED5DAF80010504668
:100C100011F00C0F09D00068C0F3810002280BD13D
:100C20009D48001F0068400206D42868800715D53B
:100C3000E068012809D111E0E068B8B10120C8F8E6
:100C40000000FFF7FBFD064605E020E1FFF7F6FD9B
:100C5000801B0228C0D828688007F7D5286821693A
:100C600020F0F80040EAC10028600DE0C8F80090CC
:100C7000FFF7E4FD064604E0FFF7E0FD801B0228D5
:100C80001FD828688007F7D42078000722D5824E25
:100C9000844861696C3671B101210160FFF7CEFDB6
:100CA000074604E0FFF7CAFDC01B022809D83068D8
:100CB0008007F7D50EE0C0F80090FFF7BFFD0746AC
:100CC00005E082E0FFF7BAFDC01B02287DD830683E
:100CD0008007F7D42078400768D5DFF8BCB100273B
:100CE0000BF1380BDBF80000C0000BD4DBF8001070
:100CF00041F08051CBF80010DBF80000012700F034
:100D000080500090684E3068C00510D4306840F4C0
:100D100080703060FFF792FD009005E0FFF78EFDD8
:100D20000099401A022850D83068C005F6D55A4EAE
:100D3000A068683601280FD00528306810D020F050
:100D400001003060306820F004003060A068B8B165
:100D5000FFF774FD00900FE0306840F00100F4E709
:100D600040F004003060F7E7FFF768FD0099411A92
:100D700041F28830814266D830688007F4D50EE0B1
:100D8000FFF75CFD009007E0FFF758FD0099411A5E
:100D900041F28830814256D830688007F4D42FB1B0
:100DA000DBF8001021F08051CBF80010A069D0B31F
:100DB000DAF800205146C2F38102022A4AD0022802
:100DC000484607D0C8F8600000E03CE0FFF736FD79
:100DD00004463BE04746C8F86000FFF72FFD064693
:100DE00005E000BFFFF72AFD801B02282BD82868EA
:100DF0008001F7D4D4E907010843A16A2B4A4908C6
:100E000002EB0141626A41EA8211084394F82C1016
:100E100040EA01612048001F016001203866FFF7A9
:100E20000DFD044605E034E0FFF708FD001B022835
:100E300009D828688001F7D52BE000BFFFF7FEFC3A
:100E4000001B022802D90320BDE8F88F2868800122
:100E5000F4D41EE00128F7D00868E26900F48001AC
:100E6000914214D1226A00F03F0191420FD147F61E
:100E7000C071626A0140914209D1A26A00F4403116
:100E8000914204D1E16A00F07060884201D00120F3
:100E9000DAE70020D8E700000838024000380240B6
:100EA00000004742800E4742007000400000FFFFF4
:100EB00010B5401EB0F1807F01D3012010BD4FF06E
:100EC000E02460610F21601700F027FB0020A06183
:100ED00007202061002010BD704770B5040004D0C9
:100EE00094F83900002510B106E0012070BD84F8A7
:100EF0003850204600F022F8242084F83900206879
:100F0000C16821F40051C160204600F0FBF920685F
:100F1000016921F4904101612068416921F02A01B1
:100F200041612068C16841F40051C160E56320203F
:100F300084F8390084F83A00002070BD70B586B09E
:100F4000064614216846FFF785F92449306888422F
:100F500041D123480025016841F01001016000687B
:100F600000F0100005901E481438016841F002019D
:100F700001600068694600F002000590C020009002
:100F8000022001900120029003200390072004908A
:100F90001448FFF769FB154C134820604FF00060C0
:100FA000C4E901054014C4E9035080106561C4E937
:100FB0000650256220466562FFF7B4FA08B1FFF7D4
:100FC000E0F97463002211462520A663FFF7A4FC14
:100FD0002520FFF793FC06B070BD00000010014013
:100FE0004438024000040240406402406400002093
:100FF000F8B5044690F83A0020283CD1C1B3BAB302
:1010000094F83800012836D0012084F83800A16215
:10101000A2850025E563222084F83A00636B174817
:10102000D863636B16481864636B1648D864606BAA
:10103000134605650846666B216802463046091D61
:10104000FFF7DAFA206801684168009184F83850A7
:10105000C16841F48071C1602068416941F00101BB
:1010600041612068416941F0400141610020F8BDC3
:10107000FFE70120FBE70220F9E700008F120008DC
:10108000CB1200084512000870477047FEE70000C9
:10109000094808B5016841F4800101600068002238
:1010A00000F48000009011463A20FFF735FCBDE8BF
:1010B00008403A20FFF722BC30380240094808B502
:1010C000016841F002010160016801F00201009134
:1010D000016841F080010160006800F0800000902C
:1010E00008BD0000303802400D4810B50B490160C2
:1010F0000C49416000214FF480628160C0E9031215
:101100000C22C0E90521C161FFF7E7FE002803D0EA
:10111000BDE81040FFF735B910BD000000100140D8
:1011200024000020A0860100FEE770477047000001
:1011300018480188C1F30A0217490A804278D30887
:10114000827843EA4213C3F30A034B80C3789209BF
:1011500042EA8303027943EA8223C3F30A038B80C2
:101160005308427943EAC213C3F30A03CB809309BD
:101170000B72C2F301124A72C2884A8102898A81C3
:101180004289CA81027B0A74427B4A74807B48820E
:1011900070470000C4000020100000207047FFF7D7
:1011A00053BB000030B593B030216846FFF752F8CA
:1011B00014210CA8FFF74EF819480025016841F0EA
:1011C00080510160006800F080501190154801685E
:1011D00041F4404101600068022400F44040119055
:1011E00001200090000401908001CDE90640062016
:1011F0000890A820CDE9090404200B906846FFF769
:10120000A9FC0CA90F2081E831004FF4A0500F90E9
:10121000E002109005210CA8FFF7B0FB13B030BD21
:1012200040380240007000400548016841F47001F8
:10123000016003494FF0006080390860704700008A
:1012400088ED00E070B5846B2068406994F839102F
:10125000C0F3C0100025212904D118B1E58420462F
:1012600000F046F82068406994F83A10C0F3801006
:10127000222904D118B1E585204600F02BF8E06B57
:1012800040F01000E0632046FFF726FE70BD10B569
:101290000146806B09680968C90513D40021C1851E
:1012A0000168CA6822F48072CA6001684A6922F043
:1012B00001024A6101684A6922F040024A61202124
:1012C00080F83A10FFF7E0FE10BD10B5806BFFF715
:1012D000DCFE10BD0168CA6822F49072CA60016821
:1012E0004A6922F001024A61202180F83A107047D1
:1012F0000168CA6822F0C002CA60202180F8391053
:10130000704700002DE9F041044600680169E26879
:1013100021F44051114301612169A068E269084349
:101320006169114308432168CA6849F20C639A4312
:101330000243CA6020684169A26921F440711143E7
:101340004161E069192764253226B0F5004F354A1E
:10135000354920684FF0000806D0884201D09042FD
:1013600036D1FFF7B5FB35E0884201D0904202D17B
:10137000FFF7AEFB01E0FFF79BFB61684A18A0FB9B
:10138000070148EB0803FEF72DFF0146B0FBF5F01F
:101390000201B1FBF5F06FF01803584301EB800038
:1013A00006EBC000B0FBF5F000F0F80002EB4002E5
:1013B000B1FBF5F0584301EB800006EBC000B0FB39
:1013C000F5F000F00700216810448860BDE8F08166
:1013D000FFF76EFB61688B0F8A00A0FB0701FEF729
:1013E00001FF0146B0FBF5F06FF01802504301EB2E
:1013F000800006EB0010B0FBF5F000F0F002B1FB4E
:10140000F5F002EB0012B1FBF5F06FF01803584352
:1014100001EB800006EB0010B0FBF5F000F00F00D0
:10142000D1E70000001401400010014038B5364DEE
:1014300029680868C968C0F3001001F0100100288D
:1014400060D000295ED0314C2068016821F0010194
:1014500001602F49206888420AD02E49884207D06F
:101460002B496031884203D02A496031884201D13A
:10147000202122E0264A1832D11490421DD0254A5C
:101480001832904219D0224A7832904215D0214A1F
:101490007832904211D01E4A8902303290420CD0EC
:1014A0001C4A3032904208D0194A9032904204D0FF
:1014B000184A9032904200D08901164A4832904230
:1014C00002D9144A121F05E0114AA832904203D9EA
:1014D000104A083A116008E00D4B0D4A4833103AA3
:1014E000984201D9D16000E0916012214160FFF77C
:1014F0001FFE2068016841F0010101602868016851
:101500004068009038BD00002400002064000020E6
:101510001060024010640240FEE70907090E00282F
:1015200004DB00F1E02080F80014704700F00F00A9
:1015300000F1E02080F8141D704702E008C8121F77
:1015400008C1002AFAD170477047002001E001C1AC
:10155000121F002AFBD17047FFF77EF9FFF722FE2A
:10156000FFF7ACFDFFF794FDFFF7BEFD05480068EF
:10157000C16841F01001C160122203490148FFF720
:1015800037FDFEE724000020C400002000061016EE
:101590000006101600000000000000000102030415
:1015A000060708090000000001020304CC1500082A
:1015B00000000020100000003A150008DC150008AB
:1015C00010000020C80400004A15000801000000B7
:0C15D00010000000000000000024F400E7
:04000005080001AD41
:00000001FF
