:020000040800F2
:1000000088070020C1010008FF1900080D19000829
:10001000FD190008F7020008511E0008000000004A
:10002000000000000000000000000000851A000829
:100030003504000800000000191A0008D91A000849
:10004000DB010008DB010008DB010008DB01000820
:10005000DB010008DB010008DB010008DB01000810
:10006000DB010008DB010008DB010008DB01000800
:10007000DB010008DB010008DB010008DB010008F0
:10008000DB010008DB010008DB010008DB010008E0
:10009000DB010008DB010008DB010008DB010008D0
:1000A000DB010008DB010008DB010008DB010008C0
:1000B000DB010008DB010008DB010008DB010008B0
:1000C000DB010008DB010008DB010008DB010008A0
:1000D000DB010008651D0008DB010008DB010008EA
:1000E000DB010008DB010008DB010008DB01000880
:1000F000DB010008DB010008DB010008DB01000870
:10010000DB010008DB010008DB010008DB0100085F
:10011000DB010008DB010008DB010008DB0100084F
:10012000DB010008DB01000885030008DB01000893
:10013000DB010008DB010008DB010008DB0100082F
:10014000F9020008DB010008DB010008DB01000800
:10015000DB010008DB010008DB010008DB0100080F
:10016000DB010008DB010008DB010008DB010008FF
:10017000DB010008DB010008DB01000800000000D3
:10018000DB010008DB010008DB010008DB010008DF
:10019000DB010008DB010008DB010008DB010008CF
:1001A0000000000000000000DB010008DFF80CD0B8
:1001B00000F07AF800480047351F00088807002043
:1001C0000648804706480047FEE7FEE7FEE7FEE7F1
:1001D000FEE7FEE7FEE7FEE7FEE7FEE7611B00083D
:1001E000AD0100082DE9F05F0546002092469B46D0
:1001F00088460646814640241BE02846414647463D
:10020000224600F041F853465A46C01A914110D395
:1002100011461846224600F028F82D1A67EB01080F
:100220004F4622460120002100F01FF817EB00097D
:100230004E41201EA4F10104DFDC484631462A4627
:100240004346BDE8F09FD2B201E000F8012B491E01
:10025000FBD270470022F6E710B513460A46044663
:100260001946FFF7F0FF204610BD202A04DB203A94
:1002700000FA02F1002070479140C2F1200320FAF9
:1002800003F3194390407047202A04DB203A21FAF7
:1002900002F00021704721FA02F3D040C2F120029F
:1002A0009140084319467047064C074D06E0E06848
:1002B00040F0010394E8070098471034AC42F6D3AD
:1002C000FFF778FF7022000890220008D0ED000AA6
:1002D000F4EEC00AF1EE10FA01DD80ED000AD0ED77
:1002E000000AB1EE400AF4EEC00AF1EE10FA01D2B3
:1002F00080ED000A7047FEE7014800F00EBA0000EA
:100300004400002000680A49884210D109480021B1
:100310001022016041608160C160C0E90412816106
:100320000121C16101620146034800F0FBB870473A
:100330000068004028010020440000202DE9F04121
:100340000E4D00242DED028B41F288369FED0C8A74
:1003500043F6982705EBC410F0EE480AB1EE040A04
:10036000B0EE601A33463A46032101F049FB641CA3
:10037000042CEFDBBDEC028BBDE8F081880100208E
:1003800000000000014800F025BC0000AC00002087
:1003900001681823CAB2103AB2FBF3F2054B6FF3AF
:1003A0000901032A9B5CC36500D9091D81650846C4
:1003B000704700005022000810B5014600208B69EC
:1003C0008A6A4FF0C07453B1B3F5005F15D072B1B3
:1003D000012A0CD0022A0AD0032A09D104E01AB15A
:1003E000012A06D0022A03D1C96AC90100D5012019
:1003F00010BDC96AA142FAD010BD002AF7D0012A67
:10040000F2D0022AF3D0032AF3D010BD30B504682D
:10041000256825F480252560046863608368402B87
:10042000036803D099600068C26030BD9A600068BC
:10043000C16030BD7047704790F82020012A07D076
:10044000022A05D0416A41F48021416201207047AF
:10045000006842690A43426100207047F0B590F895
:1004600020500468A468012D05D0022D03D0416AF4
:1004700041F4802153E014F0406F01D1E5004BD5E9
:10048000C4F30164022C03D9416A41F4000146E03F
:100490000125A5401D608D684FF4C0739DB1CE68E5
:1004A00035434E6845EAC605066803EB0417F55167
:1004B0004FF4C275076805EB04150E697E51097D7E
:1004C000012905D009E00E88CD6845EA4655EBE7DD
:1004D00001684E5946F480764E511179D2F8055094
:1004E0004FF4C67641EA0525016806EB04168D51E6
:1004F0001178D2F801204FF4C47541EA0221026854
:1005000005EB04155151006803EB0411425842F009
:10051000010242500020F0BD416A41F400114162E5
:100520000120F0BD10B590F82020012A07D0022A42
:1005300005D0416A41F480214162012010BD3B4851
:10054000D0F8002242F00102C0F80022D0F80022C8
:1005500022F47C52C0F80022D0F800224B6A42EA12
:100560000322C0F800220A7D02F01F0301229A40F4
:10057000D0F81C329343C0F81C32CB69B3B9D0F821
:100580000C329343C0F80C328C894B6864F31F43E0
:100590004C6900EBC404C4F840320C890B6864F366
:1005A0001F434C6900EBC404C4F84432CB69012BEF
:1005B00016D1D0F80C321343C0F80C320C884B68BB
:1005C00064F31F434C6900EBC404C4F840320C8947
:1005D000CB6864F31F434C6900EBC404C4F8443295
:1005E0008B69002BD0F804320ED01343C0F80432CC
:1005F0000B69002BD0F8143208D01343C0F8143222
:10060000096A012904D008E09343EFE79343F5E733
:10061000D0F81C121143C0F81C12D0F8001221F0BF
:100620000101C0F80012002010BD0000006400406D
:10063000704730B590F82040012C05D0022C03D033
:10064000416A41F480215DE00468002955D02469A5
:10065000A40754D04FF4D874056804EB01142D5945
:1006600015F00405956005682D594ED0ED085560CC
:1006700005682C5904F00204D4604FF4DA7405685C
:1006800004EB01142D5905F00F05156105682D596E
:10069000C5F30725956105682C59240C54614FF466
:1006A000DC72046802EB0112A4581C700468A458A0
:1006B000240A5C700468A458240C9C700468A25836
:1006C000120EDA704FF4DE72046802EB0112A458C5
:1006D0001C710468A458240A5C710468A458240C92
:1006E0009C710468A258120EDA71006881B1016928
:1006F00041F020010161002030BDE468A8E7416AB3
:1007000041F400114162012030BD6D0D1560AFE76D
:10071000C16841F02001C160EDE72DE9F05F0546B9
:10072000006800244669D0F804908768D0F80CB0BF
:10073000D0F810A0D0F81880F10748D0F90714D0ED
:1007400001218160B80703D5284600F03CFA0CE08F
:10075000780702D54FF4006407E0380702D54FF45C
:10076000805402E0284600F02DFAF80516D52968D5
:100770004FF480708860B80503D5284600F025FA4C
:100780000CE0780502D544F4005407E0380502D5A2
:1007900044F4804402E0284600F016FAF80316D527
:1007A00029684FF480308860B80303D5284600F0EC
:1007B0000EFA0CE0780302D544F4004407E0380355
:1007C00002D544F4803402E0284600F0FFF93007F7
:1007D00007D55FEACB6004D52968102044F4007483
:1007E000C86070074FF0080707D55FEA0B7004D5A3
:1007F0002868C760284600F07BF9B00706D528684E
:10080000C068800702D0284600F074F9700607D54A
:100810005FEACA6004D52968102044F48064086146
:10082000B00607D55FEA0A7004D528680761284634
:1008300000F098F9F00606D528680069800702D014
:10084000284600F090F9B00308D55FEAC96005D5E5
:10085000296810204860284600F086F9F00307D583
:100860005FEA097004D528684760284600F0B0F9AF
:10087000300446D55FEA497040D5F00504D55FEAFB
:10088000C87001D044F00104B00504D55FEA887057
:1008900001D544F00204700504D55FEA487001D523
:1008A00044F00404300529D518F0700F26D008F064
:1008B0007000402815D006DC102809D020280AD066
:1008C000302816D10AE050280ED0602811D10EE051
:1008D00044F008040DE044F010040AE044F0200461
:1008E00007E044F0400404E044F0800401E044F4F4
:1008F00080742868816921F0700181612968042071
:100900004860002C05D0686A204368622846FFF7DB
:100910008FFEBDE8F09F70B5040003D094F820006E
:1009200010B104E0012070BD204600F081F820687D
:10093000016821F00201016000F0C0FB05460526B8
:1009400004E000F0BBFB401B0A2811D82068406877
:100950008007F6D42068016841F00101016000F0D1
:10096000ADFB05460BE000F0A9FB401B0A2806D9A9
:10097000606A40F40030606284F82060D2E720684A
:100980004068C007EFD0207E0128206801683DD074
:1009900021F080010160607E01282068016838D064
:1009A00021F040010160A07E01282068016833D059
:1009B00021F020010160E07E0128206801682ED02E
:1009C00041F010010160207F01282068016829D0D2
:1009D00021F008010160607F01282068016824D0AF
:1009E00021F004010160D4E902010843D4E90412B2
:1009F000114308436168491E08432168C86100200B
:100A00006062012084F82000002070BD41F0800168
:100A1000C0E741F04001C5E741F02001CAE721F0FD
:100A20001001CFE741F00801D4E741F00401D9E714
:100A300030B587B0044614216846FFF70BFC2849FF
:100A40002068884249D127480024016841F080612C
:100A50000160016801F080610591016841F0007159
:100A60000160006800F0007005901E4810380168B1
:100A700041F002010160016801F002010591016885
:100A800041F080010160006801A900F0800005903C
:100A90004FF4405000900220032581E831000920E6
:100AA00004906946104800F019FA3C20009001AA11
:100AB000012082E831000D4C6946204600F00EFA14
:100AC00001223C21204600F0F3FA0022114640208A
:100AD00000F062FB402000F051FB07B030BD000089
:100AE000006800404038024000040240001C024000
:100AF0007047000010B5184B184A00211848FFF73E
:100B000098FD164B1868A0F50071013904D11249FF
:100B1000A1F1200001F002FA1868A0F50071023975
:100B200004D10D49A1F1180001F0F8F91868A0F5F9
:100B30000071033904D10849A1F1100001F0EEF968
:100B40001868B0F5017F06D10349BDE81040A1F156
:100B5000080001F0E3B910BD2C0000200C010020BA
:100B600044000020704770477047000070B504468D
:100B700090F82000012804D0606A40F400206062F0
:100B800018E0022084F820002068016821F00101AB
:100B9000016000F093FA05460EE000BF00F08EFA07
:100BA000401B0A2808D9606A40F4003060620520C2
:100BB00084F82000012070BD20684068C007EDD196
:100BC000606270BD704770477047704770477047EC
:100BD000704700002DE9F84304464FF00009CDF8B6
:100BE000009063484FF41651A56D0068B0FBF1F713
:100BF0002E6894F85C10082000FA01F131420FD001
:100C000021680A6852070BD50A6822F004020A60BC
:100C100094F85C108840A860606D40F00100606549
:100C200094F85C104FF0010808FA01F0304208D047
:100C300021684969090604D5A860606D40F002008A
:100C4000606594F85C1004208840304208D0216828
:100C50000968890704D5A860606D40F004006065EC
:100C600094F85C1010208840304218D02168096840
:100C7000090714D5A86020680168490304D50068F5
:100C8000000308D5A16C07E00168C90503D4016819
:100C900021F008010160216C09B12046884794F8D1
:100CA0005C1020208840304231D021680968C90694
:100CB0002DD5A86094F8350005282068016806D075
:100CC000490347D5006800031DD4616C1CE021F086
:100CD000160101602068416921F080014161206CAA
:100CE00008B9A06C20B12068016821F008010160FA
:100CF00094F85C103F208840A86084F8349084F811
:100D00003580216D1FE0E16B09B120468847606D99
:100D100000282BD0606DC00714D0052084F8350062
:100D20002068016821F0010101600098401C0090DA
:100D3000B84203D820680068C007F6D184F8349020
:100D400084F83580E16C002910D001B02046BDE860
:100D5000F04308470168C905D5D4016821F01001A6
:100D6000016084F8349084F83580CCE7BDE8F883DE
:100D7000400000202DE9F041044600F09FF90646AE
:100D80005CB1002584F83450022084F835002068D6
:100D9000016821F0010101600DE00120BDE8F08152
:100DA00000F08CF9801B052805D920206065032000
:100DB00084F83500F2E720680068C007F0D12268A7
:100DC000116820480140D4E901031843D4E90336EF
:100DD0003343184363691843A3691843E36918430D
:100DE000236A18430843616A042903D1D4E90B1329
:100DF00019430843106020684069666A20F00701C3
:100E000030460E43012704280CD1A06A0643E06A4D
:100E100040B12046FFF7D0FA20B14020606584F849
:100E20003570BAE7206846612046FFF7B1FA94F8BA
:100E30005C203F2191408160656584F83570002019
:100E4000ACE700003F8010F02DE9F0410446866DCC
:100E500090F83400002501280DD0012084F83400DA
:100E600094F835700020012F07D084F83400022553
:100E70002846BDE8F0810220FBE7022784F83570A0
:100E800060652046FFF7C2FA94F85C103F20884066
:100E9000B0602068016841F016010160206C20B14B
:100EA0002068016841F0080101602068016841F094
:100EB00001010160DCE7000070B5044600F0FEF8B7
:100EC0000546601C02D004480078044400F0F6F89F
:100ED000401BA042FAD370BD340000202DE9F84F2A
:100EE00000224FF0010803254FF00F0E0B6808FA9F
:100EF00002F42340A3426ED14E68012E05D0022E8B
:100F000003D0112E01D0122E12D186684FEA420C66
:100F100005FA0CF7BE43CF6807FA0CF73743876032
:100F20004668A6430C79C4F30014944034434460EB
:100F3000C668570005FA07FC8C6826EA0C06BC4018
:100F40003443C4604C68022C01D0122C13D1D40855
:100F500000EB8404A346D4F8209054074FEAD46AE7
:100F60000EFA0AF629EA06090E6906FA0AF646EAB0
:100F70000906CBF8206004680E7924EA0C0406F018
:100F80000306BE40264306604C68E4006FD53B4C28
:100F9000266846F480462660246822F0030604F49E
:100FA00080440094364C3444A446D4F8084896074C
:100FB000360F0EFA06F7BC43324FB84201D1002774
:100FC0002EE0314FB84201D1012729E02F4FB8421E
:100FD00002D1022724E04AE02D4FB84201D1032775
:100FE0001EE02C4FB84201D1042719E02A4FB84225
:100FF00001D1052714E0294FB84201D106270FE09F
:10100000274FB84201D107270AE0264FB84201D145
:10101000082705E0244FB84201D1092700E00A273C
:10102000B7402743CCF80878204E34684F689C437B
:10103000FF0300D51C4334601C4E361D34684F68D6
:101040009C43BF0300D51C433460184E08363468F7
:101050004F689C43FF0200D51C433460134E0C368E
:1010600034684F689C43BF0200D51C433460521C57
:10107000102AFFF43BAFBDE8F88F0000443802406F
:10108000003001400000024000040240000802401D
:10109000000C024000100240001402400018024000
:1010A000001C02400020024000240240003C01409D
:1010B0000AB1816170470904FBE7000001488068BC
:1010C0007047000034000020024881680278114413
:1010D00081607047340000200B4810B5016841F46E
:1010E00000710160016841F480610160016841F4B0
:1010F00080710160032000F06FF8002000F006F816
:1011000000F024F8002010BD003C024070B50D4DE9
:1011100004464FF47A712878B1FBF0F00A49096867
:10112000B1FBF0F000F004FB48B9102C07D200220C
:101130002146501E00F030F800206C6070BD012088
:1011400070BD000034000020400000200A4808B5AF
:10115000016841F480410160006800F48040009023
:101160000548001F016841F080510160006800F0EF
:101170008050009008BD000044380240002809DB80
:1011800000F01F02012191404009800000F1E020A1
:10119000C0F8001170470000F0B40E4B1B680C46FD
:1011A000C3F30223C3F10705042D00D90425191D3B
:1011B000072901D2002300E0DB1E012606FA05F113
:1011C000491E214099409E40761E16403143F0BC96
:1011D00000F03FBE0CED00E0064900F00702086891
:1011E0004FF6FF03184040EA0220034A104308600C
:1011F000704700000CED00E00000FA052DE9F04713
:101200000E46050065D0DFF81481D8F80000F7B26B
:1012100000F00F00B04207D288F80070D8F8000044
:1012200000F00F00B04254D128683D4C810712D520
:10123000400703D5206840F4E0502060287800077C
:1012400003D5206840F4604020602068A96820F041
:10125000F000084320602878C0072DD03049686826
:101260000839012812D0022813D0032811D00968A8
:10127000890700292DDA216821F00301014321604B
:10128000FFF71CFF814641F2883A0EE009688903A6
:10129000EFE709688901ECE7FFF710FFA0EB090110
:1012A000514502D90320BDE8F0872068696800F045
:1012B0000C00B0EB810FEFD1D8F80010404601F0E0
:1012C0000F01B14207D90770006800F00F00B0426B
:1012D00001D00120E7E72878400705D52068E968B4
:1012E00020F4E050084320602878000706D52068E5
:1012F000296920F4604040EAC100206000F038F81D
:101300002168084AC1F30311515CC84006490860CE
:1013100006480068FFF7FAFE0020C4E7003C0240E0
:101320000838024058220008400000203800002001
:101330000448054900680968044AC1F38221515CE8
:10134000C84070474000002008380240682200086A
:101350000448054900680968044AC1F34231515CF8
:10136000C84070474000002008380240682200084A
:10137000154810B5006810F00C02144813D0144939
:10138000042A0FD0082A0ED10F4C241F226823688C
:1013900002F03F025B0207D52068C0F38810A0FB73
:1013A000010106E0084610BD2168C1F38811A1FBC8
:1013B00000010023FEF716FF2168C1F30141491C1B
:1013C0004900B0FBF1F010BD083802400024F400E1
:1013D000001BB7002DE9F84F040076D02078DFF825
:1013E00038A3CE4DC00749D0DAF800105046C1F3FB
:1013F0008101012908D00068C0F3810002280AD1C8
:10140000281D0068400206D52868800336D560682C
:101410000028E2D032E06068B0F5803F10D0B0F52F
:10142000A02F286810D020F480302860286820F48D
:10143000802028606068A0B1FFF740FE06460CE0FF
:10144000286840F48030F4E740F480202860F7E713
:10145000FFF734FE801B642873D828688003F7D513
:101460000CE0FFF72BFE064605E000BFFFF726FE67
:10147000801B6428F0D828688003F7D42078DFF830
:10148000A08280074FF000093ED5DAF800105046E0
:1014900011F00C0F09D00068C0F3810002280BD1B5
:1014A0009D48001F0068400206D42868800715D5B3
:1014B000E068012809D111E0E068B8B10120C8F85E
:1014C0000000FFF7FBFD064605E020E1FFF7F6FD13
:1014D000801B0228C0D828688007F7D528682169B2
:1014E00020F0F80040EAC10028600DE0C8F8009044
:1014F000FFF7E4FD064604E0FFF7E0FD801B02284D
:101500001FD828688007F7D42078000722D5824E9C
:10151000844861696C3671B101210160FFF7CEFD2D
:10152000074604E0FFF7CAFDC01B022809D830684F
:101530008007F7D50EE0C0F80090FFF7BFFD074623
:1015400005E082E0FFF7BAFDC01B02287DD83068B5
:101550008007F7D42078400768D5DFF8BCB10027B2
:101560000BF1380BDBF80000C0000BD4DBF80010E7
:1015700041F08051CBF80010DBF80000012700F0AB
:1015800080500090684E3068C00510D4306840F438
:1015900080703060FFF792FD009005E0FFF78EFD50
:1015A0000099401A022850D83068C005F6D55A4E26
:1015B000A068683601280FD00528306810D020F0C8
:1015C00001003060306820F004003060A068B8B1DD
:1015D000FFF774FD00900FE0306840F00100F4E781
:1015E00040F004003060F7E7FFF768FD0099411A0A
:1015F00041F28830814266D830688007F4D50EE029
:10160000FFF75CFD009007E0FFF758FD0099411AD5
:1016100041F28830814256D830688007F4D42FB127
:10162000DBF8001021F08051CBF80010A069D0B396
:10163000DAF800205146C2F38102022A4AD0022879
:10164000484607D0C8F8600000E03CE0FFF736FDF0
:1016500004463BE04746C8F86000FFF72FFD06460A
:1016600005E000BFFFF72AFD801B02282BD8286861
:101670008001F7D4D4E907010843A16A2B4A49083D
:1016800002EB0141626A41EA8211084394F82C108E
:1016900040EA01612048001F016001203866FFF721
:1016A0000DFD044605E034E0FFF708FD001B0228AD
:1016B00009D828688001F7D52BE000BFFFF7FEFCB2
:1016C000001B022802D90320BDE8F88F286880019A
:1016D000F4D41EE00128F7D00868E26900F4800124
:1016E000914214D1226A00F03F0191420FD147F696
:1016F000C071626A0140914209D1A26A00F440318E
:10170000914204D1E16A00F07060884201D001206A
:10171000DAE70020D8E7000008380240003802402D
:1017200000004742800E4742007000400000FFFF6B
:1017300010B5401EB0F1807F01D3012010BD4FF0E5
:10174000E02460610F21601700F083FB0020A0619E
:1017500007202061002010BD704770B5040004D040
:1017600094F83900002510B106E0012070BD84F81E
:101770003850204600F022F8242084F839002068F0
:10178000C16821F40051C160204600F057FA20687A
:10179000016921F4904101612068416921F02A0129
:1017A00041612068C16841F40051C160E5632020B7
:1017B00084F8390084F83A00002070BD70B586B016
:1017C000064614216846FEF745FD244930688842E4
:1017D00041D123480025016841F0100101600068F3
:1017E00000F0100005901E481438016841F0020115
:1017F00001600068694600F002000590C02000907A
:101800000220019001200290032003900720049001
:101810001448FFF763FB154C134820604FF000603D
:10182000C4E901054014C4E9035080106561C4E9AE
:101830000650256220466562FFF79CFA08B1FEF764
:10184000FAFD7463002211462520A663FFF7A4FC6D
:101850002520FFF793FC06B070BD0000001001408A
:10186000443802400004024040640240AC000020C2
:10187000F8B5044690F83A0020283CD1C1B3BAB379
:1018800094F83800012836D0012084F83800A1628D
:10189000A2850025E563222084F83A00636B17488F
:1018A000D863636B16481864636B1648D864606B22
:1018B000134605650846666B216802463046091DD9
:1018C000FFF7C2FA206801684168009184F8385037
:1018D000C16841F48071C1602068416941F0010133
:1018E00041612068416941F0400141610020F8BD3B
:1018F000FFE70120FBE70220F9E70000C71B000813
:10190000031C00087D1B000870477047FEE7F7EED8
:10191000001A71EEC11A21EE800A00EE810A7047AA
:101920000F4810B50D4901600621416000214FF4B8
:1019300040328160C0E903124FF4801242610176A7
:1019400041768176C17601774177FEF7E4FF002882
:1019500003D0BDE81040FEF76EBD10BD006800402A
:1019600044000020094808B5016841F48001016085
:101970000068002200F48000009011463A20FFF732
:101980000BFCBDE808403A20FFF7F8BB30380240B6
:10199000094808B5016841F002010160016801F0E1
:1019A00002010091016841F080010160006800F0CF
:1019B0008000009008BD0000303802400D4810B58E
:1019C0000B4901600C49416000214FF48062816045
:1019D000C0E903120C22C0E90521C161FFF7BDFE79
:1019E000002803D0BDE81040FEF725BD10BD000063
:1019F000001001406C000020A0860100FEE7704747
:101A000030B4034C8467034CC46730BC00F016BC90
:101A10003D2200084B22000870470000184801884A
:101A2000C1F30A0200F112010A804278D3088278D9
:101A300043EA4213C3F30A034B80C378920942EA94
:101A40008303027943EA8223C3F30A038B8053089A
:101A5000427943EAC213C3F30A03CB8093090B72A2
:101A6000C2F301124A72C2884A8102898A8142897C
:101A7000CA81027B0A74427B4A74807B4882704729
:101A8000500100207047000010B58AB04FF4007478
:101A9000029400240494059408240694040A8DF802
:101AA00000408DF80100080A8DF80200100A8DF838
:101AB00004008DF80520180A8DF806008DF8031033
:101AC0008DF8073008AB6A4602A90248FEF7C6FC4B
:101AD0000AB010BD44000020FFF7F6BA30B593B04D
:101AE00030216846FEF7B6FB14210CA8FEF7B2FBC6
:101AF00019480025016841F080510160006800F03C
:101B0000805011901548016841F44041016000681F
:101B1000022400F440401190012000900004019044
:101B20008001CDE9064006200890A820CDE90904EF
:101B300004200B906846FFF74DFC0CA90F2081E8AC
:101B400031004FF4A0500F90E002109005210CA836
:101B5000FFF754FB13B030BD403802400070004026
:101B60000548016841F47001016003494FF00060CD
:101B7000803908607047000088ED00E070B5846B24
:101B80002068406994F83910C0F3C010002521295D
:101B900004D118B1E584204600F046F82068406979
:101BA00094F83A10C0F38010222904D118B1E585C9
:101BB000204600F02BF8E06B40F01000E063204678
:101BC000FFF7CAFD70BD10B50146806B0968096852
:101BD000C90513D40021C1850168CA6822F4807246
:101BE000CA6001684A6922F001024A6101684A69D3
:101BF00022F040024A61202180F83A10FFF784FE6B
:101C000010BD10B5806BFFF780FE10BD0168CA687B
:101C100022F49072CA6001684A6922F001024A61A6
:101C2000202180F83A1070470168CA6822F0C0028B
:101C3000CA60202180F83910704700002DE9F0417A
:101C4000044600680169E26821F4405111430161D2
:101C50002169A068E269084361691143084321686A
:101C6000CA6849F20C639A430243CA60206841691A
:101C7000A26921F4407111434161E069192764258B
:101C80003226B0F5004F354A354920684FF000083C
:101C900006D0884201D0904236D1FFF759FB35E09B
:101CA000884201D0904202D1FFF752FB01E0FFF7DA
:101CB0003FFB61684A18A0FB070148EB0803FEF7E9
:101CC00091FA0146B0FBF5F00201B1FBF5F06FF0BF
:101CD0001803584301EB800006EBC000B0FBF5F0A1
:101CE00000F0F80002EB4002B1FBF5F0584301EBC5
:101CF000800006EBC000B0FBF5F000F007002168A3
:101D000010448860BDE8F081FFF712FB61688B0F1B
:101D10008A00A0FB0701FEF765FA0146B0FBF5F06B
:101D20006FF01802504301EB800006EB0010B0FB8F
:101D3000F5F000F0F002B1FBF5F002EB0012B1FBA0
:101D4000F5F06FF01803584301EB800006EB00102C
:101D5000B0FBF5F000F00F00D1E7000000140140E7
:101D60000010014038B5364D29680868C968C0F3CD
:101D7000001001F01001002860D000295ED0314C25
:101D80002068016821F0010101602F492068884224
:101D90000AD02E49884207D02B496031884203D0AF
:101DA0002A496031884201D1202122E0264A183296
:101DB000D11490421DD0254A1832904219D0224A9F
:101DC0007832904215D0214A7832904211D01E4A82
:101DD0008902303290420CD01C4A3032904208D0F6
:101DE000194A9032904204D0184A9032904200D062
:101DF0008901164A4832904202D9144A121F05E05E
:101E0000114AA832904203D9104A083A116008E0FA
:101E10000D4B0D4A4833103A984201D9D16000E089
:101E2000916012214160FFF7F9FD2068016841F0DF
:101E300001010160286801684068009038BD000019
:101E40006C000020AC0000201060024010640240D2
:101E5000FEE70907090E002804DB00F1E02080F806
:101E60000014704700F00F0000F1E02080F8141D0E
:101E7000704702E008C8121F08C1002AFAD1704753
:101E80007047002001E001C1121F002AFBD17047FA
:101E900020480188A1F5806101EB4101494200EE33
:101EA000101A1D49F8EEC00AC1ED000A4288A2F5D9
:101EB000806202EB420200EE102AB8EEC01A81EDF9
:101EC000011A808871EE601AA0F5806000EB400076
:101ED000404200EE100A0F48B8EEC00A163081EDFD
:101EE000020A31EE802A71EEC01A80ED002AB1EEAE
:101EF000602A70EE810A32EE412A32EE002A30EE7C
:101F0000800A80ED012AC0ED021AB1EE400A80ED90
:101F1000030A704762010020000000200A8852BABC
:101F200002804A8852BA42808A8852BA828089796D
:101F3000C1807047FFF7D0F8FFF7D0FDFFF728FD0D
:101F4000FFF710FDFFF7ECFCFFF738FD394800689C
:101F5000C16841F01001C160122237493548FFF7CE
:101F600087FC3648FEF7CEF902213448FEF764FAC2
:101F70003248FEF7FBFDFEF7E1F9314DFFF788FF30
:101F8000287A0228FAD130482E4CB0F90200D4ED5C
:101F9000000A00EE100A2D48B8EEC00A00F060F802
:101FA0002B48D4ED010AB0F9020000EE100A2748D0
:101FB000B8EEC00A803000F053F82648D4ED020A8B
:101FC000B0F9020000EE100A2348B8EEC00A00F093
:101FD00047F82248D4ED030AB0F9020000EE100AD7
:101FE0001D48B8EEC00A803000F03AF8174890ED6E
:101FF000740ABDEEC00A10EE101A90ED540A0BB22E
:10200000BDEEC00A10EE101A90ED340A0AB2BDEE11
:10201000C00A10EE101A90ED140A09B2BDEEC00A03
:1020200010EE100A00B2FFF72FFD0520FEF744FF67
:10203000A4E700006C0000205001002044000020B4
:1020400062010020780100200C000020880100209F
:10205000140000201C000020880200202400002022
:1020600000B530EEC01A80ED080AC0ED050A80ED1B
:102070000B1AD0ED191A01469FED6E2A30EEC00AF8
:10208000F5EEC01AB1EE400AF1EE10FA0ED0B5EE40
:10209000C01AF1EE10FA02DDF0EE410A01E0F0EEB6
:1020A000400AF4EEE10AF1EE10FA12DCD1ED1A0A60
:1020B000F5EEC00AF1EE10FA0ED0B5EEC01AF1EE50
:1020C00010FA01DDB0EE410AB4EEE00AF1EE10FACA
:1020D00002D2B0EE420A00BDCA6E01F13400032AFA
:1020E00002D0042A43D084E091ED000A20EE010AD8
:1020F00081ED0C0A91ED0D0AD1ED010A00EE810A85
:1021000081ED0D0A91ED0A0AD1ED020A31EE400A85
:1021100060EE200AC1ED130A91ED120A9FED461AF6
:10212000FFF7F5FB81ED0E0A91ED1D0AB8EE400AAE
:10213000FEF7CCF891ED0C0AD1ED0D0A01F150003B
:1021400030EE200AD1ED0E0A30EE200A81ED140A9D
:1021500091ED1C0AB8EE400AFEF7B8F891ED140AAA
:1021600081ED150A91ED0E0A81ED120A41E091ED23
:102170000A0AD1ED001A71EE400A60EEA10AC1ED23
:102180000C0AD1ED010A60EE810AC1ED0D0AF0EEF4
:10219000000A00EE601A91ED090AD1ED020A31EE53
:1021A000000A20EE200A81ED0E0A91ED1D0AB8EE1C
:1021B000400AFEF78BF891ED0C0AD1ED0D0A01F102
:1021C0005C0030EE200AD1ED0E0A30EE200A81EDDF
:1021D000160AD1ED180A30EE800A81ED170A91ED4A
:1021E0001C0AB8EE400AFEF771F891ED170A81ED6E
:1021F000180A91ED0A0A81ED090A91ED0B0A81EDA9
:102200000A0A91ED070A81ED060A91ED080A81EDAF
:10221000070A91ED040A81ED030A91ED050A81EDAB
:10222000040AC86E032802D091ED170A00BD91ED93
:10223000140A00BD000000009A99193F00F16C0CCF
:102240008CE80E0080EC030A704780EC030A7047AC
:102250000006101600061016000000000000000026
:10226000010203040607080900000000010203043C
:10227000902200080000002044000000721E0008A8
:10228000D42200084400002044070000821E0008F9
:10229000000000000000000000000000000000003E
:1022A000000000000000000000000000000000002E
:1022B000000000000000000000000000000000001E
:1022C00000000000010000001000000000000000FD
:0422D0000024F400F2
:04000005080001AD41
:00000001FF
