:020000040800F2
:1000000038050020C1010008A71000089D0F000856
:10001000A5100008CD0200087513000800000000BC
:10002000000000000000000000000000AB1000080D
:100030005903000800000000A9100008AD100008D6
:10004000DB010008DB010008DB010008DB01000820
:10005000DB010008DB010008DB010008DB01000810
:10006000DB010008DB010008DB010008DB01000800
:10007000D1020008DB010008DB010008DB010008F9
:10008000DB010008DB010008DB010008DB010008E0
:10009000DB010008DB010008DB010008DB010008D0
:1000A000DB010008DB010008DB010008DB010008C0
:1000B000DB010008DB010008DB010008DB010008B0
:1000C000DB010008DB010008DB010008DB010008A0
:1000D000DB010008DB010008DB0100087D120008DD
:1000E000DB010008DB010008DB010008DB01000880
:1000F000DB010008DB010008DB010008DB01000870
:10010000DB010008DB010008DB010008DB0100085F
:10011000DB010008DB010008DB010008DB0100084F
:10012000DB010008DB010008DB010008DB0100083F
:10013000DB010008DB010008DB010008DB0100082F
:10014000DB010008DB010008DB010008DB0100081F
:10015000DB010008DB010008DB010008DB0100080F
:10016000DB010008DB010008DB010008DB010008FF
:10017000DB010008DB010008DB01000800000000D3
:10018000DB010008DB010008DB010008DB010008DF
:10019000DB010008DB010008DB010008DB010008CF
:1001A0000000000000000000DB010008DFF80CD0B8
:1001B00000F07AF800480047B51300083805002021
:1001C0000648804706480047FEE7FEE7FEE7FEE7F1
:1001D000FEE7FEE7FEE7FEE7FEE7FEE7391100086F
:1001E000AD0100082DE9F05F0546002092469B46D0
:1001F00088460646814640241BE02846414647463D
:10020000224600F041F853465A46C01A914110D395
:1002100011461846224600F028F82D1A67EB01080F
:100220004F4622460120002100F01FF817EB00097D
:100230004E41201EA4F10104DFDC484631462A4627
:100240004346BDE8F09FD2B201E000F8012B491E01
:10025000FBD270470022F6E710B513460A46044663
:100260001946FFF7F0FF204610BD202A04DB203A94
:1002700000FA02F1002070479140C2F1200320FAF9
:1002800003F3194390407047202A04DB203A21FAF7
:1002900002F00021704721FA02F3D040C2F120029F
:1002A0009140084319467047064C074D06E0E06848
:1002B00040F0010394E8070098471034AC42F6D3AD
:1002C000FFF778FFEC1300080C140008FEE70000AD
:1002D000014800F043B80000C40000200168182362
:1002E000CAB2103AB2FBF3F2054B6FF30901032ACD
:1002F0009B5CC36500D9091D8165084670470000F5
:10030000CA13000810B5014600208B698A6A4FF0B5
:10031000C07453B1B3F5005F15D072B1012A0CD08F
:10032000022A0AD0032A09D104E01AB1012A06D010
:10033000022A03D1C96AC90100D5012010BDC96ACA
:10034000A142FAD010BD002AF7D0012AF2D0022A29
:10035000F3D0032AF3D010BD704770472DE9F8435E
:1003600004464FF00009CDF8009063484FF4165151
:10037000A56D0068B0FBF1F72E6894F85C100820BA
:1003800000FA01F131420FD021680A6852070BD5FB
:100390000A6822F004020A6094F85C108840A860A1
:1003A000606D40F00100606594F85C104FF001084A
:1003B00008FA01F0304208D021684969090604D5DD
:1003C000A860606D40F00200606594F85C10042045
:1003D0008840304208D021680968890704D5A860A0
:1003E000606D40F00400606594F85C101020884057
:1003F000304218D021680968090714D5A860206820
:100400000168490304D50068000308D5A16C07E022
:100410000168C90503D4016821F008010160216C5D
:1004200009B12046884794F85C102020884030426B
:1004300031D021680968C9062DD5A86094F8350027
:1004400005282068016806D0490347D500680003E5
:100450001DD4616C1CE021F0160101602068416927
:1004600021F080014161206C08B9A06C20B12068A6
:10047000016821F00801016094F85C103F20884079
:10048000A86084F8349084F83580216D1FE0E16B1A
:1004900009B120468847606D00282BD0606DC007E9
:1004A00014D0052084F835002068016821F001018E
:1004B00001600098401C0090B84203D82068006892
:1004C000C007F6D184F8349084F83580E16C0029B7
:1004D00010D001B02046BDE8F04308470168C905C7
:1004E000D5D4016821F01001016084F8349084F8BB
:1004F0003580CCE7BDE8F8830C0000202DE9F04101
:10050000044600F055F906465CB1002584F83450E5
:10051000022084F835002068016821F001010160A3
:100520000DE00120BDE8F08100F042F9801B0528B4
:1005300005D920206065032084F83500F2E72068A3
:100540000068C007F0D12268116820480140D4E952
:1005500001031843D4E9033633431843636918434E
:10056000A3691843E3691843236A18430843616A7F
:10057000042903D1D4E90B13194308431060206800
:100580004069666A20F0070130460E4301270428BF
:100590000CD1A06A0643E06A40B12046FFF7B2FEE4
:1005A00020B14020606584F83570BAE72068466164
:1005B0002046FFF793FE94F85C203F219140816034
:1005C000656584F835700020ACE700003F8010F0CE
:1005D0002DE9F84F00224FF0010803254FF00F0ED0
:1005E0000B6808FA02F42340A3426ED14E68012E34
:1005F00005D0022E03D0112E01D0122E12D1866802
:100600004FEA420C05FA0CF7BE43CF6807FA0CF725
:10061000374387604668A6430C79C4F300149440BE
:1006200034434460C668570005FA07FC8C6826EA24
:100630000C06BC403443C4604C68022C01D0122C20
:1006400013D1D40800EB8404A346D4F820905407B7
:100650004FEAD46A0EFA0AF629EA06090E6906FA82
:100660000AF646EA0906CBF8206004680E7924EA07
:100670000C0406F00306BE40264306604C68E40006
:100680006FD53B4C266846F480462660246822F0ED
:10069000030604F480440094364C3444A446D4F851
:1006A00008489607360F0EFA06F7BC43324FB84299
:1006B00001D100272EE0314FB84201D1012729E0B6
:1006C0002F4FB84202D1022724E04AE02D4FB84212
:1006D00001D103271EE02C4FB84201D1042719E0B5
:1006E0002A4FB84201D1052714E0294FB84201D161
:1006F00006270FE0274FB84201D107270AE0264F0F
:10070000B84201D1082705E0244FB84201D109279A
:1007100000E00A27B7402743CCF80878204E346819
:100720004F689C43FF0300D51C4334601C4E361DAC
:1007300034684F689C43BF0300D51C433460184E97
:10074000083634684F689C43FF0200D51C43346070
:10075000134E0C3634684F689C43BF0200D51C43CF
:100760003460521C102AFFF43BAFBDE8F88F000044
:1007700044380240003001400000024000040240C2
:1007800000080240000C0240001002400014024029
:1007900000180240001C02400020024000240240D9
:1007A000003C01400AB1816170470904FBE7000089
:1007B00001488068704700000000002002488168FE
:1007C0000278114481607047000000200B4810B58A
:1007D000016841F400710160016841F480610160C9
:1007E000016841F480710160032000F06FF800207F
:1007F00000F006F800F024F8002010BD003C024094
:1008000070B50D4D04464FF47A712878B1FBF0F0C5
:100810000A490968B1FBF0F000F004FB48B9102C5C
:1008200007D200222146501E00F030F800206C60F4
:1008300070BD012070BD0000000000200C000020F1
:100840000A4808B5016841F480410160006800F47D
:10085000804000900548001F016841F08051016010
:10086000006800F08050009008BD0000443802404D
:10087000002809DB00F01F0201219140400980009F
:1008800000F1E020C0F8001170470000F0B40E4BFA
:100890001B680C46C3F30223C3F10705042D00D9DE
:1008A0000425191D072901D2002300E0DB1E0126C3
:1008B00006FA05F1491E214099409E40761E1640D9
:1008C0003143F0BC00F057BD0CED00E0064900F0EC
:1008D000070208684FF6FF03184040EA0220034A67
:1008E00010430860704700000CED00E00000FA05BE
:1008F0002DE9F0470E46050065D0DFF81481D8F8E1
:100900000000F7B200F00F00B04207D288F8007084
:10091000D8F8000000F00F00B04254D128683D4CD8
:10092000810712D5400703D5206840F4E0502060CD
:100930002878000703D5206840F4604020602068D4
:10094000A96820F0F000084320602878C0072DD067
:10095000304968680839012812D0022813D00328CA
:1009600011D00968890700292DDA216821F00301D7
:1009700001432160FFF71CFF814641F2883A0EE0F7
:1009800009688903EFE709688901ECE7FFF710FFC1
:10099000A0EB0901514502D90320BDE8F08720688A
:1009A000696800F00C00B0EB810FEFD1D8F80010AF
:1009B000404601F00F01B14207D90770006800F00E
:1009C0000F00B04201D00120E7E72878400705D5A5
:1009D0002068E96820F4E050084320602878000788
:1009E00006D52068296920F4604040EAC1002060F3
:1009F00000F038F82168084AC1F30311515CC8407F
:100A00000649086006480068FFF7FAFE0020C4E7C0
:100A1000003C024008380240D21300080C000020BD
:100A2000040000200448054900680968044AC1F32D
:100A30008221515CC84070470C00002008380240F9
:100A4000E21300080448054900680968044AC1F334
:100A50004231515CC84070470C0000200838024009
:100A6000E2130008154810B5006810F00C02144895
:100A700013D01449042A0FD0082A0ED10F4C241F7A
:100A80002268236802F03F025B0207D52068C0F3AA
:100A90008810A0FB010106E0084610BD2168C1F3E3
:100AA0008811A1FB00010023FFF79CFB2168C1F323
:100AB0000141491C4900B0FBF1F010BD083802406B
:100AC0000024F400001BB7002DE9F84F040076D095
:100AD0002078DFF838A3CE4DC00749D0DAF80010EF
:100AE0005046C1F38101012908D00068C0F381009C
:100AF00002280AD1281D0068400206D52868800314
:100B000036D560680028E2D032E06068B0F5803FFA
:100B100010D0B0F5A02F286810D020F480302860C5
:100B2000286820F4802028606068A0B1FFF740FEAC
:100B300006460CE0286840F48030F4E740F480205A
:100B40002860F7E7FFF734FE801B642873D8286815
:100B50008003F7D50CE0FFF72BFE064605E000BF4B
:100B6000FFF726FE801B6428F0D828688003F7D49E
:100B70002078DFF8A08280074FF000093ED5DAF830
:100B80000010504611F00C0F09D00068C0F381002E
:100B900002280BD19D48001F0068400206D4286837
:100BA000800715D5E068012809D111E0E068B8B1E7
:100BB0000120C8F80000FFF7FBFD064605E020E134
:100BC000FFF7F6FD801B0228C0D828688007F7D5FC
:100BD0002868216920F0F80040EAC10028600DE093
:100BE000C8F80090FFF7E4FD064604E0FFF7E0FDDB
:100BF000801B02281FD828688007F7D420780007B8
:100C000022D5824E844861696C3671B10121016040
:100C1000FFF7CEFD074604E0FFF7CAFDC01B022820
:100C200009D830688007F7D50EE0C0F80090FFF7CC
:100C3000BFFD074605E082E0FFF7BAFDC01B0228B2
:100C40007DD830688007F7D42078400768D5DFF872
:100C5000BCB100270BF1380BDBF80000C0000BD44F
:100C6000DBF8001041F08051CBF80010DBF80000F9
:100C7000012700F080500090684E3068C00510D405
:100C8000306840F480703060FFF792FD009005E01E
:100C9000FFF78EFD0099401A022850D83068C00531
:100CA000F6D55A4EA068683601280FD0052830685E
:100CB00010D020F001003060306820F00400306077
:100CC000A068B8B1FFF774FD00900FE0306840F005
:100CD0000100F4E740F004003060F7E7FFF768FD3B
:100CE0000099411A41F28830814266D83068800705
:100CF000F4D50EE0FFF75CFD009007E0FFF758FD2C
:100D00000099411A41F28830814256D830688007F4
:100D1000F4D42FB1DBF8001021F08051CBF8001093
:100D2000A069D0B3DAF800205146C2F38102022A4A
:100D30004AD00228484607D0C8F8600000E03CE0EE
:100D4000FFF736FD04463BE04746C8F86000FFF772
:100D50002FFD064605E000BFFFF72AFD801B022895
:100D60002BD828688001F7D4D4E907010843A16A89
:100D70002B4A490802EB0141626A41EA82110843A9
:100D800094F82C1040EA01612048001F0160012006
:100D90003866FFF70DFD044605E034E0FFF708FD77
:100DA000001B022809D828688001F7D52BE000BF76
:100DB000FFF7FEFC001B022802D90320BDE8F88FD4
:100DC00028688001F4D41EE00128F7D00868E269A1
:100DD00000F48001914214D1226A00F03F01914257
:100DE0000FD147F6C071626A0140914209D1A26AEF
:100DF00000F44031914204D1E16A00F07060884211
:100E000001D00120DAE70020D8E7000008380240CE
:100E10000038024000004742800E47420070004008
:100E20000000FFFF10B5401EB0F1807F01D301200C
:100E300010BD4FF0E02460610F21601700F09BFAB5
:100E40000020A06107202061002010BD70B50400C3
:100E500004D094F83900002510B106E0012070BDDF
:100E600084F83850204600F023F8242084F8390014
:100E70002068C16821F40051C160204600F06AF981
:100E80002068016921F4904101612068416921F0E5
:100E90002A0141612068C16841F40051C160E563E5
:100EA000202084F8390084F83A00002070BD00004A
:100EB0002DE9F04387B0064614216846FFF7CAF9CA
:100EC0003149306888425BD130480025016841F4DF
:100ED00080210160006800F4802005902B481038C4
:100EE000016841F0080101600068694600F00800EF
:100EF00005904FF440700090022001900120029074
:100F000003200390072004902148FFF761FB224C47
:100F100020484FF00067E4E8020740204FF4806863
:100F2000A4E821014FF4803944F814591A48A56106
:100F3000C4E907596562FFF7E1FA08B1FFF70DFA56
:100F40003463A663144C1348603430382060C4E91D
:100F50000175C4E903586561A561C4E907592046D4
:100F60006562FFF7CBFA08B1FFF7F7F97463002267
:100F700011462720A663FFF789FC2720FFF778FC9E
:100F800007B0BDE8F0830000004800404038024050
:100F9000000C02405860024064000020FEE70000A0
:100FA0000D4808B5016841F4001101600068002295
:100FB00000F40010009011460C20FFF767FC0C2095
:100FC000FFF756FC002211460E20FFF75FFCBDE83C
:100FD00008400E20FFF74CBC3038024030B587B0D7
:100FE00014216846FFF736F91D480024016841F0D6
:100FF00080010160016801F080010591016841F004
:1010000002010160016801F002010591016841F0EF
:1010100040010160016801F040010591016841F063
:101020000801016000680F4D00F0080005900022E3
:1010300002212846FFF7B6FB0420CDE900046946EB
:1010400009480294FFF7C4FA022000900120CDE97C
:101050000104694628460394FFF7BAFA07B030BD89
:101060003038024000180240000402400C4810B51D
:101070000A4901604FF4E1314160002181600C2296
:10108000C160C0E904128161C161FFF7DFFE002881
:1010900003D0BDE81040FFF760B910BD0048004024
:1010A00024000020FEE7704770477047FFF786BBBB
:1010B00030B593B030216846FFF7CCF814210CA866
:1010C000FFF7C8F81A480025016841F08051016017
:1010D000006800F0805011901648016841F44041CA
:1010E00001600068022400F440401190012000904B
:1010F000000401908001CDE906400C2008904FF4D7
:10110000A870CDE9090404200B906846FFF7DCFCC9
:101110000CA90F2081E831004FF4A0500F90E0029D
:10112000109005210CA8FFF7E3FB13B030BD0000C1
:1011300040380240007000400548016841F47001E9
:10114000016003494FF0006080390860704700007B
:1011500088ED00E02DE9F041044600680169E2688D
:1011600021F44051114301612169A068E2690843FB
:101170006169114308432168CA6849F20C639A43C4
:101180000243CA6020684169A26921F44071114399
:101190004161E069192764253226B0F5004F354AD0
:1011A000354920684FF0000806D0884201D09042AF
:1011B00036D1FFF747FC35E0884201D0904202D19A
:1011C000FFF740FC01E0FFF72DFC61684A18A0FB27
:1011D000070148EB0803FFF705F80146B0FBF5F0FF
:1011E0000201B1FBF5F06FF01803584301EB8000EA
:1011F00006EBC000B0FBF5F000F0F80002EB400297
:10120000B1FBF5F0584301EB800006EBC000B0FBEA
:10121000F5F000F00700216810448860BDE8F08117
:10122000FFF700FC61688B0F8A00A0FB0701FEF747
:10123000D9FF0146B0FBF5F06FF01802504301EB07
:10124000800006EB0010B0FBF5F000F0F002B1FBFF
:10125000F5F002EB0012B1FBF5F06FF01803584304
:1012600001EB800006EB0010B0FBF5F000F00F0082
:10127000D1E70000001401400010014038B53849A2
:101280000A681068D268C0F3001002F01002E8B3D8
:10129000E2B3344B1868026822F001020260324A5D
:1012A000186890420AD0314A904207D02E4A6032E4
:1012B000904203D02D4A6032904201D1202222E098
:1012C000294C1834E214A0421DD0284C1834A042F6
:1012D00019D0254C7834A04215D0244C7834A04243
:1012E00011D0214C92023034A0420CD01F4C30342B
:1012F000A04208D01C4C9034A04204D01B4C903427
:10130000A04200D09201194C483400E021E0A042F4
:1013100002D9164C241F05E0134CA834A04203D96F
:10132000124C083C226008E00F4D0F4C4835103C31
:10133000A84201D9E26000E0A2600D4A92B2426088
:101340001868026842F0010202600868026840689A
:1013500000900868C16841F01001C16038BD00000C
:1013600024000020C40000201060024010640240ED
:1013700024010020FEE70907090E002804DB00F124
:10138000E02080F80014704700F00F0000F1E0202A
:1013900080F8141D704702E008C8121F08C1002A17
:1013A000FAD170477047002001E001C1121F002AE6
:1013B000FBD17047FFF70AFAFFF77AFEFFF70EFE40
:1013C000FFF7EEFDFFF752FEFEE7000610160006DF
:1013D00010160000000000000000010203040607D0
:1013E0000809000000000102030400000C140008BA
:1013F0000000002010000000961300081C140008D4
:101400001000002028050000A613000801000000BD
:0C14100010000000000000000024F400A8
:04000005080001AD41
:00000001FF
