:020000040800F2
:10000000A0080020C1010008B72600083D23000811
:10001000B526000825040008112D00080000000086
:10002000000000000000000000000000C1270008E0
:100030007505000800000000D1260008C32700084D
:10004000DB010008DB010008DB010008DB01000820
:10005000DB010008DB010008790500082D07000816
:10006000DB010008DB01000805080008DB010008CF
:10007000DB010008DB010008DB010008DB010008F0
:10008000DB010008DB010008DB010008DB010008E0
:1000900029040008DB010008DB010008DD08000876
:1000A000DB010008DB010008DB010008DB010008C0
:1000B00069280008DB010008DB010008DB010008FB
:1000C000DB010008DB010008DB010008DB010008A0
:1000D000DB010008DB010008DB010008DB01000890
:1000E00051060008DB010008DB010008DB01000805
:1000F000DB010008DB010008DB010008DB01000870
:10010000DB010008DB010008DB010008DB0100085F
:10011000DB010008DB010008DB010008DB0100084F
:10012000DB010008DB010008C5040008DB01000852
:10013000DB010008DB010008DB010008DB0100082F
:10014000DB010008DB010008DB010008DB0100081F
:10015000DB010008DB010008DB010008DB0100080F
:10016000DB010008DB010008DB010008DB010008FF
:10017000DB010008DB010008DB01000800000000D3
:10018000DB010008DB010008DB010008DB010008DF
:10019000DB010008DB010008DB010008DB010008CF
:1001A0000000000000000000DB010008DFF80CD0B8
:1001B00000F026F90048004725310008A00800207B
:1001C0000648804706480047FEE7FEE7FEE7FEE7F1
:1001D000FEE7FEE7FEE7FEE7FEE7FEE74D28000844
:1001E000AD0100082DE9F05F0546002092469B46D0
:1001F00088460646814640241BE02846414647463D
:10020000224600F090F853465A46C01A914110D346
:1002100011461846224600F077F82D1A67EB0108C0
:100220004F4622460120002100F06EF817EB00092E
:100230004E41201EA4F10104DFDC484631462A4627
:100240004346BDE8F09F00000649074A086850434E
:1002500043F23902104408604008704701490860C1
:1002600070470000840000206D4EC64140EA010343
:100270009B0703D009E008C9121F08C0042AFAD25C
:1002800003E011F8013B00F8013B521EF9D2704720
:10029000D2B201E000F8012B491EFBD270470022C8
:1002A000F6E710B513460A4604461946FFF7F0FF75
:1002B000204610BD0EB5C10F80EAE0700844CA07A1
:1002C000002140F233438DE80E000A460B4600F051
:1002D00049F803B000BD000030B5041E71F1000400
:1002E00004DB4FF00044404264EB0101141E73F143
:1002F000000405DB1C464FF00043524263EB04034D
:10030000994208BF904230BD202A04DB203A00FA0F
:1003100002F1002070479140C2F1200320FA03F35C
:10032000194390407047202A04DB203A21FA02F05A
:100330000021704721FA02F3D040C2F1200291401F
:1003400008431946704710B5141E73F1000408DA0B
:10035000401C41F1000192185B411A4301D120F089
:10036000010010BD2DE9F04D92469B4611B1B1FA46
:1003700081F202E0B0FA80F220329046FFF7C4FF2B
:1003800004460F4640EA0A0041EA0B0153465A462A
:10039000084313D0114653EA010019D0C8F14002B6
:1003A0005046FFF7C0FF05460E46504659464246A6
:1003B000FFF7AAFF084305D0012004E02046394694
:1003C000BDE8F08D0020054346EAE0762C43374334
:1003D0000A986305E40AA0EB08000022FD0A44EA3B
:1003E00047540A3002D500200146E9E701051019FB
:1003F0006941DDE9084500196941BDE8F04DA2E712
:10040000064C074D06E0E06840F0010394E8070061
:1004100098471034AC42F6D3FFF7CCFE6C36000898
:100420008C360008FEE70000014800F04EBB0000DB
:10043000D800002000680A4988420FD109480021ED
:10044000016041608160C1600161416181610121A0
:10045000C16101620146044800F0B0BA7047000073
:100460000064004088000020D80000202DE9F04101
:10047000104D00242DED048B41F2883643F6982769
:100480009FED0D8ADFED0D8A9FED0D9A05EBC410EF
:10049000B0EE481AF0EE680AB0EE490A33463A4622
:1004A000032102F009F9641C042CEFDBBDEC048B82
:1004B000BDE8F08138020020CDCC4C3ECDCCCC3D07
:1004C00000007A45014800F001BD0000D80100207D
:1004D00001681823CAB2103AB2FBF3F2054B6FF36E
:1004E0000901032A9B5CC36500D9091D8165084683
:1004F000704700003836000810B5014600208B69AF
:100500008A6A4FF0C07453B1B3F5005F15D072B171
:10051000012A0CD0022A0AD0032A09D104E01AB118
:10052000012A06D0022A03D1C96AC90100D50120D7
:1005300010BDC96AA142FAD010BD002AF7D0012A25
:10054000F2D0022AF3D0032AF3D010BD30B50468EC
:10055000256825F480252560046863608368402B46
:10056000036803D099600068C26030BD9A6000687B
:10057000C16030BD704700002DE9F0474FF41670A0
:1005800000F016FEDFF8A4900421484600F00CFFAE
:10059000274C284F284EDFF8A4A000254FF08048B4
:1005A00098B90221504600F0FFFE70B101220421EB
:1005B000484600F0FEFE2068401C2060385C02F0D7
:1005C00035FE3560C8F824502BE00421484600F081
:1005D000EBFE20B90221504600F0E6FE08BB0022E7
:1005E0006021174800F0E5FE0022E421484600F0B3
:1005F000E0FE00220221504600F0DBFE00220C212A
:10060000104800F0D6FE002208210F4800F0D1FE6D
:1006100002F0A8FB387802F009FE3560C8F82450D3
:1006200025600A4901200860BDE8F08700200240EB
:1006300010000020080000200000002000140240EC
:10064000001002400008024000000240143C01403B
:100650002DE9F0474FF4167000F0AAFDDFF8A890DE
:100660004021484600F0A0FE284C294F294EDFF8D3
:10067000A8A000254FF0804898B94021504600F0CE
:1006800093FE70B101224021484600F092FE20689E
:10069000401C2060385C02F0C9FD3560C8F8245069
:1006A0002BE04021484600F07FFE20B94021504613
:1006B00000F07AFE08BB00226021504600F079FE6F
:1006C0000022E421484600F074FE00220221134873
:1006D00000F06FFE00220C21114800F06AFE00229B
:1006E0000821104800F065FE02F03CFB387802F06B
:1006F0009DFD3560C8F8245025600B494FF48050AB
:100700000860BDE8F08700000020024010000020D3
:1007100008000020000000200010024000140240E9
:100720000008024000000240143C01402DE9F0475F
:100730004FF4167000F03CFDDFF8A4900821484605
:1007400000F032FE274C284F284EDFF8A4A00025E9
:100750004FF0804898B90821504600F025FE70B14E
:1007600001220821484600F024FE2068401C206039
:10077000385C02F05BFD3560C8F824502BE008219E
:10078000484600F011FE20B90821504600F00CFE4A
:1007900008BB00226021174800F00BFE0022E42174
:1007A000154800F006FE00220221144800F001FE68
:1007B00000220C21504600F0FCFD00220821484692
:1007C00000F0F7FD02F0CEFA387802F02FFD356028
:1007D000C8F8245025600A4902200860BDE8F08767
:1007E000000002401000002008000020000000204F
:1007F00000080240001002400020024000140240A5
:10080000143C01402DE9F0474FF4167000F0D0FC85
:10081000DFF8A4908021484600F0C6FD274C284F01
:10082000284EDFF8A4A000254FF0804898B9202179
:10083000504600F0B9FD70B101228021484600F019
:10084000B8FD2068401C2060385C02F0EFFC356089
:10085000C8F824502BE08021484600F0A5FD20B9BF
:100860002021504600F0A0FD08BB00226021504628
:1008700000F09FFD0022E421484600F09AFD00228E
:100880000221124800F095FD00220C21104800F0D2
:1008900090FD002208210F4800F08BFD02F062FA63
:1008A000387802F0C3FC3560C8F8245025600A4946
:1008B00010200860BDE8F0870020024010000020F2
:1008C0000800002000000020001002400014024038
:1008D0000008024000000240143C01402DE9F047AE
:1008E0004FF4167000F064FCDFF8A8902021484611
:1008F00000F05AFD284C294F294EDFF8A8A000250A
:100900004FF0804898B90421504600F04DFD70B179
:1009100001222021484600F04CFD2068401C206048
:10092000385C02F083FC3560C8F824502BE02021AD
:10093000484600F039FD20B90421504600F034FD4E
:1009400008BB00226021184800F033FD0022E4219A
:10095000484600F02EFD00220221144800F029FD37
:1009600000220C21504600F024FD002208211048EE
:1009700000F01FFD02F0F6F9387802F057FC356000
:10098000C8F8245025600B494FF400700860BDE89A
:10099000F087000000200240100000200800002026
:1009A0000000002000080240001002400014024035
:1009B00000000240143C01407047000010B590F860
:1009C0002020012A07D0022A05D0416A41F4802163
:1009D0004162012010BD3B48D0F8002242F00102E4
:1009E000C0F80022D0F8002222F47C52C0F8002285
:1009F000D0F800224B6A42EA0322C0F800220A7DA6
:100A000002F01F0301229A40D0F81C329343C0F831
:100A10001C32CB69B3B9D0F80C329343C0F80C3216
:100A20008C894B6864F31F434C6900EBC404C4F821
:100A300040320C890B6864F31F434C6900EBC4041B
:100A4000C4F84432CB69012B16D1D0F80C321343D1
:100A5000C0F80C320C884B6864F31F434C6900EB00
:100A6000C404C4F840320C89CB6864F31F434C695A
:100A700000EBC404C4F844328B69002BD0F8043274
:100A80000ED01343C0F804320B69002BD0F8143297
:100A900008D01343C0F81432096A012904D008E0D1
:100AA0009343EFE79343F5E7D0F81C121143C0F8E6
:100AB0001C12D0F8001221F00101C0F80012002031
:100AC00010BD00000064004070472DE9F05F05464E
:100AD000006800244669D0F804908768D0F80CB00C
:100AE000D0F810A0D0F81880F10748D0F90714D03A
:100AF00001218160B80703D5284600F0E0F90CE039
:100B0000780702D54FF4006407E0380702D54FF4A8
:100B1000805402E0284600F0D1F9F80516D529687E
:100B20004FF480708860B80503D5284600F0C9F9F5
:100B30000CE0780502D544F4005407E0380502D5EE
:100B400044F4804402E0284600F0BAF9F80316D5D0
:100B500029684FF480308860B80303D5284600F038
:100B6000B2F90CE0780302D544F4004407E03803FE
:100B700002D544F4803402E0284600F0A3F930079F
:100B800007D55FEACB6004D52968102044F40074CF
:100B9000C86070074FF0080707D55FEA0B7004D5EF
:100BA0002868C760284600F057F9B00706D52868BE
:100BB000C068800702D0284600F04FF9700607D5BC
:100BC0005FEACA6004D52968102044F48064086193
:100BD000B00607D55FEA0A7004D528680761284681
:100BE00000F03CF9F00606D528680069800702D0BD
:100BF000284600F034F9B00308D55FEAC96005D58E
:100C0000296810204860284600F02AF9F00307D52B
:100C10005FEA097004D528684760284600F054F957
:100C2000300446D55FEA497040D5F00504D55FEA47
:100C3000C87001D044F00104B00504D55FEA8870A3
:100C400001D544F00204700504D55FEA487001D56F
:100C500044F00404300529D518F0700F26D008F0B0
:100C60007000402815D006DC102809D020280AD0B2
:100C7000302816D10AE050280ED0602811D10EE09D
:100C800044F008040DE044F010040AE044F02004AD
:100C900007E044F0400404E044F0800401E044F440
:100CA00080742868816921F07001816129680420BD
:100CB0004860002C05D0686A204368622846FFF728
:100CC00003FFBDE8F09F70B5040003D094F8200046
:100CD00010B104E0012070BD204600F081F82068CA
:100CE000016821F00201016000F068FB054605265D
:100CF00004E000F063FB401B0A2811D8206840681C
:100D00008007F6D42068016841F00101016000F01D
:100D100055FB05460BE000F051FB401B0A2806D9A5
:100D2000606A40F40030606284F82060D2E7206896
:100D30004068C007EFD0207E0128206801683DD0C0
:100D400021F080010160607E01282068016838D0B0
:100D500021F040010160A07E01282068016833D0A5
:100D600021F020010160E07E0128206801682ED07A
:100D700041F010010160207F01282068016829D01E
:100D800021F008010160607F01282068016824D0FB
:100D900021F004010160D4E902010843D4E90412FE
:100DA000114308436168491E08432168C861002057
:100DB0006062012084F82000002070BD41F08001B5
:100DC000C0E741F04001C5E741F02001CAE721F04A
:100DD0001001CFE741F00801D4E741F00401D9E761
:100DE00010B586B0044614216846FFF758FA174933
:100DF0002068884227D116480021026842F000721C
:100E00000260006800F00070059011481038026818
:100E100042F0080202600068022200F0080005901B
:100E20000320CDE90210CDE90002092004906946B3
:100E3000084800F0CFF900221146142000F02CFBE6
:100E4000142000F01BFB06B010BD00000064004041
:100E500040380240000C02407047704770477047AE
:100E60007047000070B5044690F82000012804D0B7
:100E7000606A40F40020606218E0022084F82000DC
:100E80002068016821F00101016000F097FA054631
:100E90000EE000BF00F092FA401B0A2808D9606AF1
:100EA00040F400306062052084F82000012070BD0D
:100EB00020684068C007EDD1606270BD7047704720
:100EC0007047704770477047704700002DE9F8433E
:100ED00004464FF00009CDF8009063484FF41651D6
:100EE000A56D0068B0FBF1F72E6894F85C1008203F
:100EF00000FA01F131420FD021680A6852070BD580
:100F00000A6822F004020A6094F85C108840A86025
:100F1000606D40F00100606594F85C104FF00108CE
:100F200008FA01F0304208D021684969090604D561
:100F3000A860606D40F00200606594F85C100420C9
:100F40008840304208D021680968890704D5A86024
:100F5000606D40F00400606594F85C1010208840DB
:100F6000304218D021680968090714D5A8602068A4
:100F70000168490304D50068000308D5A16C07E0A7
:100F80000168C90503D4016821F008010160216CE2
:100F900009B12046884794F85C10202088403042F0
:100FA00031D021680968C9062DD5A86094F83500AC
:100FB00005282068016806D0490347D5006800036A
:100FC0001DD4616C1CE021F01601016020684169AC
:100FD00021F080014161206C08B9A06C20B120682B
:100FE000016821F00801016094F85C103F208840FE
:100FF000A86084F8349084F83580216D1FE0E16B9F
:1010000009B120468847606D00282BD0606DC0076D
:1010100014D0052084F835002068016821F0010112
:1010200001600098401C0090B84203D82068006816
:10103000C007F6D184F8349084F83580E16C00293B
:1010400010D001B02046BDE8F04308470168C9054B
:10105000D5D4016821F01001016084F8349084F83F
:101060003580CCE7BDE8F883200000202DE9F04171
:10107000044600F0A3F906465CB1002584F834501C
:10108000022084F835002068016821F00101016028
:101090000DE00120BDE8F08100F090F9801B0528EB
:1010A00005D920206065032084F83500F2E7206828
:1010B0000068C007F0D12268116820480140D4E9D7
:1010C00001031843D4E903363343184363691843D3
:1010D000A3691843E3691843236A18430843616A04
:1010E000042903D1D4E90B13194308431060206885
:1010F0004069666A20F0070130460E430127042844
:101100000CD1A06A0643E06A40B12046FFF7F4F92B
:1011100020B14020606584F83570BAE720684661E8
:101120002046FFF7D5F994F85C203F21914081607B
:10113000656584F835700020ACE700003F8010F052
:101140002DE9F0410446866D90F834000025012811
:101150000DD0012084F8340094F835700020012F60
:1011600007D084F8340002252846BDE8F08102202B
:10117000FBE7022784F8357060652046FFF7E6F943
:1011800094F85C103F208840B0602068016841F00E
:1011900016010160206C20B12068016841F008014F
:1011A00001602068016841F001010160DCE7000096
:1011B00070B5044600F002F90546601C02D00448F0
:1011C0000078044400F0FAF8401BA042FAD370BD46
:1011D000140000202DE9F84F00224FF001080325EC
:1011E0004FF00F0E0B6808FA02F42340A3426ED1B1
:1011F0004E68012E05D0022E03D0112E01D0122EE2
:1012000012D186684FEA420C05FA0CF7BE43CF684C
:1012100007FA0CF7374387604668A6430C79C4F396
:101220000014944034434460C668570005FA07FC34
:101230008C6826EA0C06BC403443C4604C68022C1F
:1012400001D0122C13D1D40800EB8404A346D4F8A7
:10125000209054074FEAD46A0EFA0AF629EA0609E2
:101260000E6906FA0AF646EA0906CBF82060046819
:101270000E7924EA0C0406F00306BE4026430660FD
:101280004C68E4006FD53B4C266846F480462660E7
:10129000246822F0030604F480440094364C34445D
:1012A000A446D4F808489607360F0EFA06F7BC4352
:1012B000324FB84201D100272EE0314FB84201D160
:1012C000012729E02F4FB84202D1022724E04AE04B
:1012D0002D4FB84201D103271EE02C4FB84201D157
:1012E000042719E02A4FB84201D1052714E0294FFD
:1012F000B84201D106270FE0274FB84201D1072796
:101300000AE0264FB84201D1082705E0244FB84231
:1013100001D1092700E00A27B7402743CCF8087815
:10132000204E34684F689C43FF0300D51C43346053
:101330001C4E361D34684F689C43BF0300D51C43C8
:101340003460184E083634684F689C43FF0200D55D
:101350001C433460134E0C3634684F689C43BF0204
:1013600000D51C433460521C102AFFF43BAFBDE88B
:10137000F88F000044380240003001400000024075
:101380000004024000080240000C0240001002402D
:101390000014024000180240001C024000200240DD
:1013A00000240240003C01400069084000D00120B8
:1013B00070470AB1816170470904FBE70148806802
:1013C0007047000014000020024881680278114430
:1013D00081607047140000200B4810B5016841F48B
:1013E00000710160016841F480610160016841F4AD
:1013F00080710160032000F06FF8002000F006F813
:1014000000F024F8002010BD003C024070B50D4DE6
:1014100004464FF47A712878B1FBF0F00A49096864
:10142000B1FBF0F000F06BFC48B9102C07D20022A1
:101430002146501E00F030F800206C6070BD012085
:1014400070BD000014000020200000200A4808B5EC
:10145000016841F480410160006800F48040009020
:101460000548001F016841F080510160006800F0EC
:101470008050009008BD000044380240002809DB7D
:1014800000F01F02012191404009800000F1E0209E
:10149000C0F8001170470000F0B40E4B1B680C46FA
:1014A000C3F30223C3F10705042D00D90425191D38
:1014B000072901D2002300E0DB1E012606FA05F110
:1014C000491E214099409E40761E16403143F0BC93
:1014D00001F01FBC0CED00E0064900F007020868AF
:1014E0004FF6FF03184040EA0220034A1043086009
:1014F000704700000CED00E00000FA052DE9F04710
:101500000E46050065D0DFF81481D8F80000F7B268
:1015100000F00F00B04207D288F80070D8F8000041
:1015200000F00F00B04254D128683D4C810712D51D
:10153000400703D5206840F4E05020602878000779
:1015400003D5206840F4604020602068A96820F03E
:10155000F000084320602878C0072DD03049686823
:101560000839012812D0022813D0032811D00968A5
:10157000890700292DDA216821F003010143216048
:10158000FFF71CFF814641F2883A0EE009688903A3
:10159000EFE709688901ECE7FFF710FFA0EB09010D
:1015A000514502D90320BDE8F0872068696800F042
:1015B0000C00B0EB810FEFD1D8F80010404601F0DD
:1015C0000F01B14207D90770006800F00F00B04268
:1015D00001D00120E7E72878400705D52068E968B1
:1015E00020F4E050084320602878000706D52068E2
:1015F000296920F4604040EAC100206000F038F81A
:101600002168084AC1F30311515CC84006490860CB
:1016100006480068FFF7FAFE0020C4E7003C0240DD
:101620000838024040360008200000201800002042
:101630000448054900680968044AC1F38221515CE5
:10164000C84070472000002008380240503600088B
:101650000448054900680968044AC1F34231515CF5
:10166000C84070472000002008380240503600086B
:10167000154810B5006810F00C02144813D0144936
:10168000042A0FD0082A0ED10F4C241F2268236889
:1016900002F03F025B0207D52068C0F38810A0FB70
:1016A000010106E0084610BD2168C1F38811A1FBC5
:1016B00000010023FEF796FD2168C1F30141491C9A
:1016C0004900B0FBF1F010BD083802400024F400DE
:1016D000001BB7002DE9F84F040076D02078DFF822
:1016E00038A3CE4DC00749D0DAF800105046C1F3F8
:1016F0008101012908D00068C0F3810002280AD1C5
:10170000281D0068400206D52868800336D5606829
:101710000028E2D032E06068B0F5803F10D0B0F52C
:10172000A02F286810D020F480302860286820F48A
:10173000802028606068A0B1FFF740FE06460CE0FC
:10174000286840F48030F4E740F480202860F7E710
:10175000FFF734FE801B642873D828688003F7D510
:101760000CE0FFF72BFE064605E000BFFFF726FE64
:10177000801B6428F0D828688003F7D42078DFF82D
:10178000A08280074FF000093ED5DAF800105046DD
:1017900011F00C0F09D00068C0F3810002280BD1B2
:1017A0009D48001F0068400206D42868800715D5B0
:1017B000E068012809D111E0E068B8B10120C8F85B
:1017C0000000FFF7FBFD064605E020E1FFF7F6FD10
:1017D000801B0228C0D828688007F7D528682169AF
:1017E00020F0F80040EAC10028600DE0C8F8009041
:1017F000FFF7E4FD064604E0FFF7E0FD801B02284A
:101800001FD828688007F7D42078000722D5824E99
:10181000844861696C3671B101210160FFF7CEFD2A
:10182000074604E0FFF7CAFDC01B022809D830684C
:101830008007F7D50EE0C0F80090FFF7BFFD074620
:1018400005E082E0FFF7BAFDC01B02287DD83068B2
:101850008007F7D42078400768D5DFF8BCB10027AF
:101860000BF1380BDBF80000C0000BD4DBF80010E4
:1018700041F08051CBF80010DBF80000012700F0A8
:1018800080500090684E3068C00510D4306840F435
:1018900080703060FFF792FD009005E0FFF78EFD4D
:1018A0000099401A022850D83068C005F6D55A4E23
:1018B000A068683601280FD00528306810D020F0C5
:1018C00001003060306820F004003060A068B8B1DA
:1018D000FFF774FD00900FE0306840F00100F4E77E
:1018E00040F004003060F7E7FFF768FD0099411A07
:1018F00041F28830814266D830688007F4D50EE026
:10190000FFF75CFD009007E0FFF758FD0099411AD2
:1019100041F28830814256D830688007F4D42FB124
:10192000DBF8001021F08051CBF80010A069D0B393
:10193000DAF800205146C2F38102022A4AD0022876
:10194000484607D0C8F8600000E03CE0FFF736FDED
:1019500004463BE04746C8F86000FFF72FFD064607
:1019600005E000BFFFF72AFD801B02282BD828685E
:101970008001F7D4D4E907010843A16A2B4A49083A
:1019800002EB0141626A41EA8211084394F82C108B
:1019900040EA01612048001F016001203866FFF71E
:1019A0000DFD044605E034E0FFF708FD001B0228AA
:1019B00009D828688001F7D52BE000BFFFF7FEFCAF
:1019C000001B022802D90320BDE8F88F2868800197
:1019D000F4D41EE00128F7D00868E26900F4800121
:1019E000914214D1226A00F03F0191420FD147F693
:1019F000C071626A0140914209D1A26A00F440318B
:101A0000914204D1E16A00F07060884201D0012067
:101A1000DAE70020D8E7000008380240003802402A
:101A200000004742800E4742007000400000FFFF68
:101A300070B5040005D00025A56294F8510010B1DE
:101A400006E0012070BD84F85050204600F030F8C8
:101A5000022084F851002068016821F040010160F3
:101A6000D4E901010843D4E9031211430843616931
:101A70000843218B01F400710843E1690843216A9E
:101A80000843A16A084321680860A069042101EAAB
:101A90001040616A0843216848602068C16921F4E8
:101AA0000061C1616565012084F85100002070BDAE
:101AB00010B586B0044614216846FEF7F0FB1449C1
:101AC0002068884221D113480021026842F4801224
:101AD0000260006800F4801005900E481438026817
:101AE00042F020020260006800F0200005904FF4F0
:101AF000607000900220CDE90101032003900520D1
:101B0000049069460448FFF765FB06B010BD00006D
:101B10000050014044380240001402402DE9F84FC3
:101B2000044690F8500000270A9E1D4692468B46B8
:101B30004FF0010901280ED0012084F85000FFF772
:101B40003DFC804694F85100616801280CD0B1F545
:101B5000827F07D102E00220BDE8F88FA16809B9B1
:101B6000042801D00227C2E0BBF1000F27D0BAF150
:101B7000000F24D01DB394F85100042802D0052092
:101B800084F8510000206065C4F838A0E587A58777
:101B9000C4F830B0E586A5862064606420680168DA
:101BA000490603D4016841F040010160E068B0F5E6
:101BB000006F606805D0E8B3012D46D07FE00127B3
:101BC00095E008B1012D39D1206B21680088C860EB
:101BD000206B801C2063E08E401EE0862EE0206893
:101BE000816889070FD5E18E69B1B9F1010F0AD17A
:101BF000216B0988C160206B801C2063E08E401E31
:101C0000E0864FF0000920688168C9070CD0E18F99
:101C100051B1C068A16B0880A06B801CA063E08FED
:101C2000401EE0874FF00109FFF7C8FBA0EB08005A
:101C3000B04200E009E001D3701C50D1E08E0028D2
:101C4000CDD1E08F0028CAD13FE0206B2168007819
:101C50000873206B401C2063E08E401EE0862EE05F
:101C60002068816889070FD5E18E69B1B9F1010F4C
:101C70000AD1216B09780173206B401C2063E08E30
:101C8000401EE0864FF0000920688168C9070CD02B
:101C9000E18F51B1C068A16B0870A06B401CA063BC
:101CA000E08F401EE0874FF00109FFF787FBA0EBB4
:101CB0000800B04202D3701C01D010E07EB1E08E6B
:101CC0000028CDD1E08F0028CAD1424631462046B7
:101CD00000F000FD28B101272020606507E0032700
:101CE00005E0A06818B92068C168806800900120EC
:101CF00084F85100002084F8500038462CE710B5D5
:101D0000401EB0F1807F01D3012010BD4FF0E024D0
:101D100060610F21601700F0FCFF0020A061072028
:101D20002061002010BD70477047000070B590F82A
:101D30003C20012A32D0012480F83C40022280F865
:101D40003D2003685A689D6822F070060A68324395
:101D50005A60134B02689A4214D0B2F1804F11D0EE
:101D6000104B9A420ED0104B9A420BD00F4B9A4216
:101D700008D00F4B9A4205D00E4B9A4202D00E4B20
:101D80009A4204D1496825F080031943916080F894
:101D90003D40002180F83C10084670BD022070BD17
:101DA000000001400004004000080040000C00401A
:101DB00000040140004001400018004010B504003C
:101DC00003D094F83D0010B107E0012010BD0020C1
:101DD00084F83C00204600F00DF8022084F83D0015
:101DE000211D206800F046FD012084F83D00002000
:101DF00010BD000008B50068B0F1804F12D10A484C
:101E0000016841F0010101600068002200F001005A
:101E1000009001211C20FFF73FFBBDE808401C207B
:101E2000FFF72CBB08BD0000403802400168CA68BB
:101E300042F00102CA600068816801F007010629CA
:101E400003D0016841F0010101600020704770B5C6
:101E5000044690F83C00012817D0012584F83C5036
:101E6000022084F83D002068826822F0770222F484
:101E70007F4282600868502830D00DDC20284DD089
:101E800005DC98B310283BD148E0022070BD302813
:101E900044D0402834D139E0602828D0702806D0BA
:101EA000B0F5805F2CD0B0F5005F29D10AE0CB6897
:101EB000D1E90121206800F041FD2068816841F0EE
:101EC000770109E0CB68D1E90121206800F036FDF7
:101ED0002068816841F48041816011E0CA684968E6
:101EE000206800F0FFFD5021206807E016E0CA6876
:101EF0004968206800F007FE6021206800F028FD96
:101F000084F83D50002084F83C0070BDCA684968E0
:101F1000206800F0E7FD40212068EFE722680146D5
:101F20001046EBE7704770B50446006801694FF052
:101F30000005C943890715D4C168C943890711D46D
:101F4000E91E016101202077206880698007204612
:101F500002D0FFF7E7FF04E000F0EBF8204600F0C6
:101F600005F9257720680169C943490717D4C16875
:101F7000C943490713D46FF004010161022020779F
:101F80002068806910F4407F204602D0FFF7CAFF26
:101F900004E000F0CEF8204600F0E8F8257720684D
:101FA0000169C943090716D4C168C943090712D496
:101FB0006FF008010161042020772068C069800764
:101FC000204602D0FFF7AEFF04E000F0B2F8204652
:101FD00000F0CCF8257720680169C943C90617D4F9
:101FE000C168C943C90613D46FF01001016108200C
:101FF00020772068C06910F4407F204602D0FFF7A8
:1020000091FF04E000F095F8204600F0AFF8257746
:1020100020680169C943C90708D1C168C943C90714
:1020200004D1891E0161204600F0A2F820680169F0
:10203000C943090609D4C168C943090605D46FF02C
:10204000800101612046FFF76EFE20680169C943E7
:10205000490609D4C168C943490605D46FF0400157
:102060000161204600F08EF820680169C9438906A5
:102070000BD4C168C943890607D46FF02001016100
:102080002046BDE87040FFF74FBE70BD10B586B06A
:10209000044614216846FEF702F92068B0F1804F2B
:1020A00016D10C480021026842F00102026000686B
:1020B00000F0010005904FF4004000900220CDE9AF
:1020C00001010120CDE9031069460348FFF782F8BA
:1020D00006B010BD303802400000024070B5044622
:1020E00090F83C0001280DD0012584F83C500220D6
:1020F00084F83D0042B1042A0AD0082A0CD00C2AE8
:1021000011D10DE0022070BD206800F029FC0AE02A
:10211000206800F055FC06E0206800F087FC02E033
:10212000206800F0B7FC84F83D50002084F83C00A3
:1021300070BD704710B5040003D094F83D0010B195
:1021400007E0012010BD002084F83C00204600F08C
:102150000CF8022084F83D00211D206800F08AFB65
:10216000012084F83D00002010BD7047704700003A
:1021700003480168491C01604168491C416070477F
:10218000000000207047704770B5040004D094F838
:102190003900002510B106E0012070BD84F83850E8
:1021A000204600F023F8242084F839002068C16814
:1021B00021F40051C160204600F016FD206801693D
:1021C00021F4904101612068416921F02A014161B7
:1021D0002068C16841F40051C160E563202084F8A3
:1021E000390084F83A00002070BD000070B586B058
:1021F000064614216846FEF752F8244930688842A2
:1022000041D123480025016841F0100101600068B8
:1022100000F0100005901E481438016841F00201DA
:1022200001600068694600F002000590C02000903F
:1022300002200190012002900320039007200490C7
:102240001448FEF7C7FF154C134820604FF000609C
:10225000C4E901054014C4E9035080106561C4E974
:102260000650256220466562FEF700FF08B1FEF7C2
:10227000A3FB7463002211462520A663FFF70CF927
:102280002520FFF7FBF806B070BD000000100140EC
:10229000443802400004024040640240D80100205B
:1022A000F8B5044690F83A0020283CD1C1B3BAB33F
:1022B00094F83800012836D0012084F83800A16253
:1022C000A2850025E563222084F83A00636B174855
:1022D000D863636B16481864636B1648D864606BE8
:1022E000134605650846666B216802463046091D9F
:1022F000FEF726FF206801684168009184F8385095
:10230000C16841F48071C1602068416941F00101F8
:1023100041612068416941F0400141610020F8BD00
:10232000FFE70120FBE70220F9E70000752B00081A
:10233000B12B00082B2B000870477047FEE7000008
:102340000F4810B50D4901600621416000214FF48E
:1023500040328160C0E903124FF48012426101767D
:1023600041768176C17601774177FEF7ACFC002893
:1023700003D0BDE81040FEF71FBB10BD0064004055
:10238000D8000020094808B5016841F480010160C7
:102390000068002200F48000009011463A20FFF708
:1023A0007BF8BDE808403A20FFF768B830380240B3
:1023B0002DE9F04F87B014216846FDF770FF6F4894
:1023C0000024016841F001010160016801F0010190
:1023D0000591016841F010010160016801F01001F0
:1023E0000591016841F002010160016801F00201FC
:1023F0000591016841F008010160016801F00801E0
:102400000591016841F480710160016801F48071F7
:102410000591016841F020010160016801F020018F
:102420000591016841F080010160016801F08001BF
:102430000591016841F0040101600068504F00F00F
:1024400004000590002260213846FEF7B2FFDFF855
:1024500034810022E4214046FEF7ABFFDFF82891EB
:10246000002202214846FEF7A4FFDFF820A1002247
:102470000C215046FEF79DFFDFF814B10022082121
:102480005846FEF796FF434E41F21000CDE9000694
:10249000694602943846FEF79DFE602000900125B3
:1024A000CDE90154694638460394FEF793FEE420D3
:1024B0000090CDE90154694640460394FEF78AFE38
:1024C0006802CDE90006694602944046FEF782FEA6
:1024D0000095CDE9016469464846FEF77BFE42203F
:1024E0000090CDE90154694648460394FEF772FE18
:1024F0000220CDE90006694602945046FEF76AFEC6
:102500000C200090CDE90154694650460394FEF733
:1025100061FE08200090CDE90154694658460394B5
:10252000FEF758FE002205210620FEF7B5FF062023
:10253000FEF7A4FF002205210720FEF7ADFF0720CC
:10254000FEF79CFF002205210A20FEF7A5FF0A20C6
:10255000FEF794FF002205211720FEF79DFF1720AC
:10256000FEF78CFF002205212820FEF795FF28208A
:10257000FEF784FF07B0BDE8F08F0000303802405E
:1025800000100240002002400014024000080240F7
:102590000000024000002110104810B50E490160F3
:1025A0004FF48271416000218160C1604FF400727C
:1025B0000161C0E905123022C0E907214162816250
:1025C0000A21C162FFF734FA002803D0BDE81040A9
:1025D000FEF7F2B910BD00000050014000010020DC
:1025E00010B58EB000240794089409940A940B94B3
:1025F0001C2168460C94FDF752FE1D484FF08041A7
:1026000001605321C0E9011444F61F61C0E90314BD
:102610008461FFF7D3FB08B1FEF7CEF94FF4805089
:10262000079007A91248FFF712FC08B1FEF7C4F99A
:102630000F48FFF77FFD08B1FEF7BEF90B940BA919
:102640000B480C94FFF772FB08B1FEF7B5F9009444
:10265000019402940022694605480494FFF73EFD68
:1026600008B1FEF7A9F90248FFF710FD0EB010BD42
:10267000580100200D4810B50B4901600C4941601C
:1026800000214FF480628160C0E903120C22C0E98E
:102690000521C161FFF778FD002803D0BDE8104097
:1026A000FEF78AB910BD000000100140980100201B
:1026B000A0860100FEE7704730B4034C8467034CEA
:1026C000C46730BC00F0AEBF2536000833360008C2
:1026D0007047000038B504461248134B0068B0FB41
:1026E000F3F04FF47A73584300906068B0F5827F3E
:1026F0000DD10B46009200228021204600F016F8F2
:1027000070B1606D40F020006065032038BD009816
:1027100030B1401E009020688068C0430006F6D5A6
:10272000002038BD2000002000366E012DE9F04168
:102730001D4617460E460446DDF8188008E0681C62
:1027400006D0FEF73BFEA0EB0800A8420BD255B125
:102750002068806836EA000030D00020B842EED110
:102760000020BDE8F0812068416821F0E00141606F
:102770006068B0F5827F0BD1A068B0F5004F02D041
:10278000B0F5806F04D12068016821F0400101603C
:10279000A06AB0F5005F09D12068016821F40051FA
:1027A00001602068016841F400510160012084F853
:1027B0005100002084F850000320D2E70120CDE72B
:1027C0007047FEF701BE000030B593B03021684677
:1027D000FDF765FD14210CA8FDF761FD19480025E2
:1027E000016841F080510160006800F08050119054
:1027F0001548016841F4404101600068022400F47A
:102800004040119001200090000401908001CDE92A
:10281000064006200890A820CDE9090404200B906A
:102820006846FEF757FF0CA90F2081E831004FF4EE
:10283000A0500F90E002109005210CA8FEF75EFE5C
:1028400013B030BD403802400070004005480168B8
:1028500041F47001016003494FF000608039086065
:102860007047000088ED00E00148FFF75CBB000006
:1028700058010020F0B50268254C264D264E274F02
:10288000274B4FF0804CA04209D0604507D0A842AA
:1028900005D0B04203D0B84201D0984204D122F012
:1028A000700E4A6842EA0E02A0421BD0604519D061
:1028B000A84217D0B04215D0B84213D0984211D0D8
:1028C000184DA8420ED0184DA8420BD0174DA84263
:1028D00008D0174DA84205D0164DA84202D0164D7B
:1028E000A84203D122F44075CA682A434D6922F0F8
:1028F00080022A4302608A68C2620A688262A04239
:1029000001D0984201D10969016301214161F0BD03
:10291000000001400004004000080040000C00409E
:1029200000040140004001400044014000480140D3
:1029300000180040001C00400020004010B58468D2
:1029400042EA032224F47F440A432243826010BDFA
:10295000826822F070020A4342F0070181607047EA
:10296000F0B5026A22F001020262036A42688469D9
:10297000124E24F073050C682C4323F002058B687B
:102980002B430D4DA84201D0B04205D123F00807DA
:10299000CB683B4323F00403A84201D0B04205D1E9
:1029A0004D6922F4407215438A692A43426084616A
:1029B000496841630362F0BD00000140000401402A
:1029C000F0B5026A22F010020262026A436884696A
:1029D0000D6824F4E64444EA05248D6822F02002C0
:1029E00042EA05120F4D104EA84201D0B04206D166
:1029F000CF6822F0800242EA071222F04002A84289
:102A000001D0B04207D14D6923F4406343EA850306
:102A10008D6943EA8503436084614968816302628A
:102A2000F0BD00000000014000040140F0B5026A62
:102A300022F480720262026A4368C46922F400725E
:102A400024F073050C68124E2C438D6842EA05226F
:102A50000E4DA84201D0B04206D1CF6822F40062E8
:102A600042EA072222F48062A84201D0B04207D194
:102A70004D6923F4405343EA05138D6943EA051376
:102A80004360C4614968C1630262F0BD0000014057
:102A90000004014030B5026A22F480520262046AE6
:102AA0004268C3690D6823F4E64343EA05238D6851
:102AB00024F4005444EA0534084DA84202D0084DDD
:102AC000A84204D14D6922F4804242EA8512426054
:102AD000C36149680164046230BD00000000014028
:102AE0000004014010B5036A046A24F00104046282
:102AF000846924F0F00444EA021423F00A020A4331
:102B00008461026210BD10B5036A23F010030362F2
:102B10008369046A23F4704343EA023224F0A00379
:102B200043EA01118261016210BD70B5846B2068B7
:102B3000406994F83910C0F3C0100025212904D150
:102B400018B1E584204600F046F82068406994F802
:102B50003A10C0F38010222904D118B1E58520462F
:102B600000F02BF8E06B40F01000E0632046FFF728
:102B70000AFB70BD10B50146806B09680968C9057C
:102B800013D40021C1850168CA6822F48072CA602A
:102B900001684A6922F001024A6101684A6922F02B
:102BA00040024A61202180F83A10FFF7C5FB10BDB2
:102BB00010B5806BFFF7C1FB10BD0168CA6822F435
:102BC0009072CA6001684A6922F001024A612021BC
:102BD00080F83A1070470168CA6822F0C002CA60E3
:102BE000202180F8391070472DE9F0410446006833
:102BF0000169E26821F44051114301612169A06833
:102C0000E26908436169114308432168CA6849F2CF
:102C10000C639A430243CA6020684169A26921F4A7
:102C2000407111434161E069192764253226B0F5EE
:102C3000004F354A354920684FF0000806D08842D9
:102C400001D0904236D1FEF703FD35E0884201D035
:102C5000904202D1FEF7FCFC01E0FEF7E9FC61685E
:102C60004A18A0FB070148EB0803FDF7BBFA014631
:102C7000B0FBF5F00201B1FBF5F06FF0180358431B
:102C800001EB800006EBC000B0FBF5F000F0F800AF
:102C900002EB4002B1FBF5F0584301EB800006EB7C
:102CA000C000B0FBF5F000F0070021681044886018
:102CB000BDE8F081FEF7BCFC61688B0F8A00A0FBC9
:102CC0000701FDF78FFA0146B0FBF5F06FF018022F
:102CD000504301EB800006EB0010B0FBF5F000F074
:102CE000F002B1FBF5F002EB0012B1FBF5F06FF072
:102CF0001803584301EB800006EB0010B0FBF5F021
:102D000000F00F00D1E70000001401400010014066
:102D1000FEE70907090E002804DB00F1E02080F837
:102D20000014704700F00F0000F1E02080F8141D3F
:102D300070472DED020B019820F0004001909DEDB1
:102D4000000B02B0704702E008C8121F08C1002A39
:102D5000FAD170477047002001E001C1121F002A1C
:102D6000FBD170472DE9F041FEF728FBFDF776FA1D
:102D700000240E4E05270025052C14D0FDF764FA1B
:102D800090FBF7F107FB11010020491C04E0325CC5
:102D90008A4200D10125401CA042F8DB012DEAD077
:102DA0003155641CE7E7BDE8F08100000800002011
:102DB00010B559482DED0A8BB0F90610B0F908008E
:102DC0009FED569BDFED57BA574C9FED588A9FED0C
:102DD00058BADFED58AA9FED58AADFED588A0029AE
:102DE0004EDA9FED57CA00282ADA91FBF0F0FDF782
:102DF00061FA41EC100BFFF79CFF53EC192B51ECDF
:102E0000100BFDF769FA0AD8C4ED01BA84ED028A05
:102E10009FED4C0A84ED030A9FED4B0A0BE09FEDFA
:102E20004B0A84ED010A9FED4A0A84ED020A84ED03
:102E300003BA9FED480A84ED040ABDEC0A8B10BD6D
:102E4000FBDD91FBF0F0FDF735FA41EC100BFFF7DD
:102E500070FF53EC192B51EC100BFDF73DFA84ED8C
:102E600001CA06D884ED028AC4ED03AA9FED3A0A8E
:102E7000E1E784ED02AAC4ED038A9FED380ADAE7A0
:102E8000DBDD00289FED36CA22DD91FBF0F0FDF777
:102E900011FA41EC100BFFF74CFF53EC192B51ECDE
:102EA000100BFDF719FA0AD89FED2E0A84ED010ADE
:102EB000C4ED02AA84ED038AC4ED04BABDE79FED18
:102EC0002A0A84ED010AC4ED028A84ED03AAB2E75E
:102ED000B3DA91FBF0F0FDF7EDF941EC100BFFF7E1
:102EE00028FF53EC192B51EC100BFDF7F5F984ED8D
:102EF00001CA08D89FED1D0A84ED020A84ED038AF9
:102F00009FED1B0A97E79FED1B0A84ED02BA84ED43
:102F1000030A9FED190A8EE7380400200000000024
:102F20000000F03F0AD7A3BB24000020A8C64BBE78
:102F3000E17A543F355E7ABF68910DBFE17A54BFA4
:102F40000AD7A33BBE9F7A3F4ED111BC6F1203BC80
:102F50007B140EBF6F1203BBA69B443C99BB16BBF0
:102F60000AD7233B52499D3A99BB163B355E7A3FBF
:102F70006F12033C295C0FBFBC74933B06220146D1
:102F8000492000F0EDBA10B530216A2000F020FB96
:102F90000A20FEF70DF90D21242000F019FB0A206C
:102FA000FEF706F90E21282000F012FB0A20FEF79A
:102FB000FFF88E21312000F00BFB0A20FEF7F8F815
:102FC00001210B2000F07BF80A20FEF7F1F8002029
:102FD00000F059F8102801D0012010BD01210B206C
:102FE00000F06DF80A20FEF7E3F800210A2000F057
:102FF00066F80A2000F047F808B1022010BD0A2048
:10300000FEF7D6F800210B2000F059F80B2000F055
:103010003AF808B1032010BD0A20FEF7C9F82421B0
:10302000412000F04CF8412000F02DF8242801D078
:10303000042010BD0A20FEF7BBF8C021422000F09A
:103040003EF8422000F01FF8C02801D0052010BD36
:103050000A20FEF7ADF800212A2000F0B9FA0A2074
:10306000FEF7A6F80021342000F0B2FA0A20FEF79D
:103070009FF8062203210E2000F0B0F96420FEF72D
:1030800097F8002010BD10B50146322000F0A0FADC
:103090000A20FEF78DF88021342000F099FA0A20EA
:1030A000FEF786F8352000F033FA0446002134207C
:1030B00000F08EFA0A20FEF77BF8204610BD70B5AE
:1030C0000D46044600212A2000F082FA0220FEF775
:1030D0006FF82146292000F07BFA0220FEF768F8FD
:1030E0002946642000F074FA0220FEF761F881217D
:1030F0002A2000F06DFABDE870400A20FEF758B8AB
:1031000010B5012244F240010448FEF752F90122B1
:10311000BDE81040D1020248FEF74BB9001402404E
:1031200000100240FEF758F9FFF74EFBFFF740F999
:10313000FFF728F9FFF704F9FFF79CFAFFF750FAB9
:10314000FFF72AFAFFF7DCFF00F096F8FFF730FEF2
:103150002A48FDF76FF92A480068C16841F010015C
:10316000C160122227492648FFF79AF82348FDF745
:1031700079FEFDF77BF9FFF7F5FD234F387800F076
:1031800055F82248FEF752FE214D224EDFF8889076
:10319000DFF888A0DFF888B000244FF0804800BF37
:1031A00000F09CF80A20FEF703F828680528F7DAF3
:1031B00030687D28F4D1002260214846FEF7F9F8F6
:1031C0000022E4215046FEF7F4F80022022158467E
:1031D000FEF7EFF800220C211248FEF7EAF8002271
:1031E00008211148FEF7E5F8FFF7BCFD387800F03C
:1031F0001DF83460C8F824402C60D1E7D8000020C6
:1032000098010020B0000020080000205801002094
:1032100010000020000000200010024000200240AA
:1032200000140240000802400000024001280FD0B4
:103230000E4B022810D0032811D00D4B042811D0BA
:10324000052812D1012208214FEA0300FEF7B1B888
:10325000012202210748F9E701222021F4E7012297
:103260004021F1E701220421EEE7704700100240FF
:10327000000802400014024030B585B06420FDF71C
:1032800097FF752000F044F9124900241422887039
:1032900011496846FCF7EAFF4FEA0D0505EB4400CB
:1032A000417815F8140000F093F90120FDF780FF34
:1032B000641CE4B20A2CF1D3032000F084F902204C
:1032C00000F07CF9FFF75FFE00F0D0F805B00020B9
:1032D00030BD0000240000205836000810B50E2232
:1032E00039493B2000F03CF9374800F10E040188D1
:1032F00049BA2180418849BA6180818849BAA18050
:10330000C18849BAA1810189628B49BA891AE181D0
:103310004189A28B49BA891A21828089E18B40BAFE
:10332000401A60822948FFF729FE2849A4F142008B
:103330004C399FED271ACA6C8264B1F85010A0F87E
:103340004C10D0F842100160D0F846104160D0F81F
:103350004A108160B4F90C0000EE100AA4F142009A
:10336000F8EEC00A80EE810AF3EE050A30EE200A7C
:1033700080ED030AB4F90E1000EE101AF8EEC00A40
:103380009FED140A80EE801ADFED130AC1EE201AB9
:10339000C0ED041AB4F9101001EE101AF8EEC11ABB
:1033A00081EE801AC1EE201AC0ED051AB4F9121090
:1033B00001EE101AF8EEC11A81EE801A81EE200A91
:1033C00080ED060A10BD00006C0400207000002093
:1033D0005CEFA6436F1283413333654270B50E46EE
:1033E000044601461546282000F0F2F80220FDF7B9
:1033F000DFFE0A21292000F0EBF80220FDF7D8FEBD
:103400000121642000F0E4F80220FDF7D1FE44F031
:103410008001252000F0DCF80220FDF7C9FE3146CE
:10342000262000F0D5F80220FDF7C2FE032134204B
:1034300000F0CEF80220FDF7BBFE0321672000F06C
:10344000C7F80220FDF7B4FE81212A2000F0C0F861
:103450000620FDF7ADFE45F08001272000F0B8F80A
:10346000BDE870400220FDF7A3BE00002DE9F04149
:10347000264E002706F10E044FF496750E222349BE
:103480003B2000F06DF83188A08A49BA0844A08238
:103490007188E08A49BA0844E082B188208B49BA31
:1034A000084420833189608B49BA0844608371895C
:1034B000A08B49BA0844A083B189E08B49BA08447B
:1034C000E0830520FDF774FE7F1CAF42D6DBB4F924
:1034D000140090FBF5F0A082B4F9160090FBF5F013
:1034E000E082B4F9180090FBF5F02083B4F91A00DB
:1034F00090FBF5F000B2608390FBF5F0A083B4F987
:103500001E0090FBF5F0E083BDE8F0816C04002024
:10351000F8B5104E0446002240213046FDF749FF21
:1035200044F080000C4C3725621C20700123511E92
:103530000A480095FEF7F2FA621C0123511E074863
:103540000095FEF7EBFA012240213046FDF731FFEE
:103550006078F8BD00140240240000200001002023
:10356000F8B5134F15460E46044600224021384652
:10357000FDF71FFF0F4944F08000372408705231D7
:10358000A1F151020870012352390B480094FEF753
:10359000C5FA08492B463246523107480094FEF7D7
:1035A000BDFA012240213846FDF703FF0020F8BD97
:1035B000001402402400002000010020C006010E7B
:1035C0001C2000F005B8C006010E1B20AFF30080E0
:1035D000F8B5114F0E460446002240213846FDF74B
:1035E000E8FE04F07F000D4C3725621C207001239B
:1035F000511E0B480095FEF791FA2670621C0123BC
:10360000511E07480095FEF789FA012240213846ED
:10361000FDF7CFFE0020F8BD00140240240000207A
:103620000001002000F16C0C8CE80E0080EC030A15
:10363000704780EC030A704700061016000610164B
:103640000000000000000000010203040607080952
:1036500000000000010203046B806B036C001A047D
:103660001B181C101D026A20000000008C36000888
:103670000000002088000000462D000814370008D4
:103680008800002018080000562D000800000000E7
:10369000000000000000000000000000000000002A
:1036A0000100000010000000000000000024F400F1
:1036B000000000000000803F00000000000000004B
:1036C00000000000000000000000000000000000FA
:1036D00000000000000000000000000000000000EA
:1036E00000000000000000000000000000000000DA
:1036F00000000000000000000000000000000000CA
:103700000000FF00000000000000000000000000BA
:0437100000000000B5
:04000005080001AD41
:00000001FF
