:020000040800F2
:1000000068040020C10100082312000895110008AF
:1000100021120008CD020008CD12000800000000E7
:10002000000000000000000000000000271200088F
:10003000DD02000800000000251200082912000857
:10004000DB010008DB010008DB010008DB01000820
:10005000DB010008DB010008DB010008DB01000810
:10006000DB010008DB010008DB010008DB01000800
:10007000DB010008DB010008DB010008DB010008F0
:10008000DB010008DB010008DB010008DB010008E0
:10009000D1020008DB010008DB010008DB010008D9
:1000A000DB010008DB010008DB010008DB010008C0
:1000B000DB010008DB010008DB010008DB010008B0
:1000C000DB010008DB010008DB010008DB010008A0
:1000D000DB010008DB010008DB010008DB01000890
:1000E000DB010008DB010008DB010008DB01000880
:1000F000DB010008DB010008DB010008DB01000870
:10010000DB010008DB010008DB010008DB0100085F
:10011000DB010008DB010008DB010008DB0100084F
:10012000DB010008DB010008DB010008DB0100083F
:10013000DB010008DB010008DB010008DB0100082F
:10014000DB010008DB010008DB010008DB0100081F
:10015000DB010008DB010008DB010008DB0100080F
:10016000DB010008DB010008DB010008DB010008FF
:10017000DB010008DB010008DB01000800000000D3
:10018000DB010008DB010008DB010008DB010008DF
:10019000DB010008DB010008DB010008DB010008CF
:1001A0000000000000000000DB010008DFF80CD0B8
:1001B00000F07AF800480047251300086804002082
:1001C0000648804706480047FEE7FEE7FEE7FEE7F1
:1001D000FEE7FEE7FEE7FEE7FEE7FEE7B1120008F6
:1001E000AD0100082DE9F05F0546002092469B46D0
:1001F00088460646814640241BE02846414647463D
:10020000224600F041F853465A46C01A914110D395
:1002100011461846224600F028F82D1A67EB01080F
:100220004F4622460120002100F01FF817EB00097D
:100230004E41201EA4F10104DFDC484631462A4627
:100240004346BDE8F09FD2B201E000F8012B491E01
:10025000FBD270470022F6E710B513460A46044663
:100260001946FFF7F0FF204610BD202A04DB203A94
:1002700000FA02F1002070479140C2F1200320FAF9
:1002800003F3194390407047202A04DB203A21FAF7
:1002900002F00021704721FA02F3D040C2F120029F
:1002A0009140084319467047064C074D06E0E06848
:1002B00040F0010394E8070098471034AC42F6D3AD
:1002C000FFF778FF5813000878130008FEE70000D6
:1002D000014800F012B9000020000020704770476C
:1002E00090F82020012A07D0022A05D0416A41F463
:1002F0008021416201207047006842690A434261DF
:100300000020704710B590F82020012A07D0022A5B
:1003100005D0416A41F480214162012010BD3B4873
:10032000D0F8002242F00102C0F80022D0F80022EA
:1003300022F47C52C0F80022D0F800224B6A42EA34
:100340000322C0F800220A7D02F01F0301229A4016
:10035000D0F81C329343C0F81C32CB69B3B9D0F843
:100360000C329343C0F80C328C894B6864F31F4302
:100370004C6900EBC404C4F840320C890B6864F388
:100380001F434C6900EBC404C4F84432CB69012B11
:1003900016D1D0F80C321343C0F80C320C884B68DD
:1003A00064F31F434C6900EBC404C4F840320C8969
:1003B000CB6864F31F434C6900EBC404C4F84432B7
:1003C0008B69002BD0F804320ED01343C0F80432EE
:1003D0000B69002BD0F8143208D01343C0F8143244
:1003E000096A012904D008E09343EFE79343F5E756
:1003F000D0F81C121143C0F81C12D0F8001221F0E2
:100400000101C0F80012002010BD0000006400408F
:10041000704730B590F82040012C05D0022C03D055
:10042000416A41F480215DE00468002955D02469C7
:10043000A40754D04FF4D874056804EB01142D5967
:1004400015F00405956005682D594ED0ED085560EE
:1004500005682C5904F00204D4604FF4DA7405687E
:1004600004EB01142D5905F00F05156105682D5990
:10047000C5F30725956105682C59240C54614FF488
:10048000DC72046802EB0112A4581C700468A458C2
:10049000240A5C700468A458240C9C700468A25858
:1004A000120EDA704FF4DE72046802EB0112A458E7
:1004B0001C710468A458240A5C710468A458240CB4
:1004C0009C710468A258120EDA71006881B101694A
:1004D00041F020010161002030BDE468A8E7416AD5
:1004E00041F400114162012030BD6D0D1560AFE790
:1004F000C16841F02001C160EDE72DE9F05F0546DC
:10050000006800244669D0F804908768D0F80CB0E1
:10051000D0F810A0D0F81880F10748D0F90714D00F
:1005200001218160B80703D5284600F00EFA0CE0DF
:10053000780702D54FF4006407E0380702D54FF47E
:10054000805402E0284600F0FFF9F80516D5296826
:100550004FF480708860B80503D5284600F0F7F99D
:100560000CE0780502D544F4005407E0380502D5C4
:1005700044F4804402E0284600F0E8F9F80316D578
:1005800029684FF480308860B80303D5284600F00E
:10059000E0F90CE0780302D544F4004407E03803A6
:1005A00002D544F4803402E0284600F0D1F9300747
:1005B00007D55FEACB6004D52968102044F40074A5
:1005C000C86070074FF0080707D55FEA0B7004D5C5
:1005D0002868C760284600F071F9B00706D528687A
:1005E000C068800702D0284600F06AF9700607D577
:1005F0005FEACA6004D52968102044F48064086169
:10060000B00607D55FEA0A7004D528680761284656
:1006100000F06AF9F00606D528680069800702D064
:10062000284600F062F9B00308D55FEAC96005D535
:10063000296810204860284600F058F9F00307D5D3
:100640005FEA097004D528684760284600F082F9FF
:10065000300446D55FEA497040D5F00504D55FEA1D
:10066000C87001D044F00104B00504D55FEA887079
:1006700001D544F00204700504D55FEA487001D545
:1006800044F00404300529D518F0700F26D008F086
:100690007000402815D006DC102809D020280AD088
:1006A000302816D10AE050280ED0602811D10EE073
:1006B00044F008040DE044F010040AE044F0200483
:1006C00007E044F0400404E044F0800401E044F416
:1006D00080742868816921F0700181612968042093
:1006E0004860002C05D0686A204368622846FFF7FE
:1006F0008FFEBDE8F09F70B5040003D094F8200091
:1007000010B104E0012070BD204600F081F820689F
:10071000016821F00201016000F00EFA054605268D
:1007200004E000F009FA401B0A2811D8206840684C
:100730008007F6D42068016841F00101016000F0F3
:10074000FBF905460BE000F0F7F9401B0A2806D933
:10075000606A40F40030606284F82060D2E720686C
:100760004068C007EFD0207E0128206801683DD096
:1007700021F080010160607E01282068016838D086
:1007800021F040010160A07E01282068016833D07B
:1007900021F020010160E07E0128206801682ED050
:1007A00041F010010160207F01282068016829D0F4
:1007B00021F008010160607F01282068016824D0D1
:1007C00021F004010160D4E902010843D4E90412D4
:1007D000114308436168491E08432168C86100202D
:1007E0006062012084F82000002070BD41F080018B
:1007F000C0E741F04001C5E741F02001CAE721F020
:100800001001CFE741F00801D4E741F00401D9E736
:1008100030B587B0044614216846FFF71BFD234915
:10082000206888423FD122480025016841F00071CC
:100830000160006800F0007005901D4810380168E4
:1008400041F080010160016801F0800105910168BB
:1008500041F0080101600068032400F008000590E1
:100860000220CDE9004002950920CDE90340694608
:10087000104800F071F800221146142000F0CAF967
:10088000142000F0B9F9CDE90254102000900120A5
:10089000094C01906946204600F05EF801221021C3
:1008A000204600F043F907B030BD0000006400406E
:1008B00040380240000C0240001C0240704700001B
:1008C00010B5064B064A00210648FFF7A2FD034972
:1008D000BDE81040A1F1080000F018BD080000209C
:1008E000480000202000002070477047704700003B
:1008F00070B5044690F82000012804D0606A40F4E6
:100900000020606218E0022084F82000206801685E
:1009100021F00101016000F00FF905460EE000BF73
:1009200000F00AF9401B0A2808D9606A40F4003038
:100930006062052084F82000012070BD20684068B6
:10094000C007EDD1606270BD704770477047704757
:1009500070477047704700002DE9F84F00224FF0B4
:10096000010803254FF00F0E0B6808FA02F423402C
:10097000A3426ED14E68012E05D0022E03D0112E57
:1009800001D0122E12D186684FEA420C05FA0CF7FC
:10099000BE43CF6807FA0CF7374387604668A64323
:1009A0000C79C4F30014944034434460C668570083
:1009B00005FA07FC8C6826EA0C06BC403443C46088
:1009C0004C68022C01D0122C13D1D40800EB840403
:1009D000A346D4F8209054074FEAD46A0EFA0AF6D8
:1009E00029EA06090E6906FA0AF646EA0906CBF86C
:1009F000206004680E7924EA0C0406F00306BE4069
:100A0000264306604C68E4006FD53B4C266846F4EC
:100A100080462660246822F0030604F48044009493
:100A2000364C3444A446D4F808489607360F0EFADC
:100A300006F7BC43324FB84201D100272EE0314FB8
:100A4000B84201D1012729E02F4FB84202D1022735
:100A500024E04AE02D4FB84201D103271EE02C4F7D
:100A6000B84201D1042719E02A4FB84201D1052725
:100A700014E0294FB84201D106270FE0274FB842B2
:100A800001D107270AE0264FB84201D1082705E027
:100A9000244FB84201D1092700E00A27B740274375
:100AA000CCF80878204E34684F689C43FF0300D58B
:100AB0001C4334601C4E361D34684F689C43BF0392
:100AC00000D51C433460184E083634684F689C4388
:100AD000FF0200D51C433460134E0C3634684F6857
:100AE0009C43BF0200D51C433460521C102AFFF403
:100AF0003BAFBDE8F88F00004438024000300140B1
:100B0000000002400004024000080240000C0240C5
:100B1000001002400014024000180240001C024075
:100B20000020024000240240003C01400AB18161E3
:100B300070470904FBE70000014880687047000027
:100B400010000020024881680278114481607047DB
:100B5000100000200B4810B5016841F400710160DD
:100B6000016841F480610160016841F480710160B5
:100B7000032000F06FF8002000F006F800F024F8E1
:100B8000002010BD003C024070B50D4D04464FF4EE
:100B90007A712878B1FBF0F00A490968B1FBF0F0EE
:100BA00000F0E4FA48B9102C07D200222146501E6A
:100BB00000F030F800206C6070BD012070BD0000B6
:100BC000100000201C0000200A4808B5016841F40C
:100BD00080410160006800F4804000900548001FDB
:100BE000016841F080510160006800F08050009081
:100BF00008BD000044380240002809DB00F01F0255
:100C0000012191404009800000F1E020C0F800116E
:100C100070470000F0B40E4B1B680C46C3F3022370
:100C2000C3F10705042D00D90425191D072901D298
:100C3000002300E0DB1E012606FA05F1491E2140D3
:100C400099409E40761E16403143F0BC00F03FBBF9
:100C50000CED00E0064900F0070208684FF6FF03BC
:100C6000184040EA0220034A104308607047000021
:100C70000CED00E00000FA052DE9F0470E460500F6
:100C800065D0DFF81481D8F80000F7B200F00F004B
:100C9000B04207D288F80070D8F8000000F00F00CA
:100CA000B04254D128683D4C810712D5400703D586
:100CB000206840F4E05020602878000703D52068C1
:100CC00040F4604020602068A96820F0F0000843EC
:100CD00020602878C0072DD030496868083901287D
:100CE00012D0022813D0032811D0096889070029DF
:100CF0002DDA216821F0030101432160FFF71CFF79
:100D0000814641F2883A0EE009688903EFE70968F5
:100D10008901ECE7FFF710FFA0EB0901514502D96B
:100D20000320BDE8F0872068696800F00C00B0EB94
:100D3000810FEFD1D8F80010404601F00F01B14209
:100D400007D90770006800F00F00B04201D0012001
:100D5000E7E72878400705D52068E96820F4E050E7
:100D6000084320602878000706D52068296920F408
:100D7000604040EAC100206000F018F82168084A8D
:100D8000C1F30311515CC840064908600648006879
:100D9000FFF7FAFE0020C4E7003C0240083802409A
:100DA000481300081C00002014000020154810B54E
:100DB000006810F00C02144813D01449042A0FD014
:100DC000082A0ED10F4C241F2268236802F03F022C
:100DD0005B0207D52068C0F38810A0FB010106E084
:100DE000084610BD2168C1F38811A1FB0001002352
:100DF000FFF7F8F92168C1F30141491C4900B0FB34
:100E0000F1F010BD083802400024F400001BB700C8
:100E10002DE9F84F040076D02078DFF838A3CE4DC6
:100E2000C00749D0DAF800105046C1F3810101290A
:100E300008D00068C0F3810002280AD1281D00688C
:100E4000400206D52868800336D560680028E2D0C5
:100E500032E06068B0F5803F10D0B0F5A02F286870
:100E600010D020F480302860286820F4802028608A
:100E70006068A0B1FFF760FE06460CE0286840F409
:100E80008030F4E740F480202860F7E7FFF754FE55
:100E9000801B642873D828688003F7D50CE0FFF71F
:100EA0004BFE064605E000BFFFF746FE801B6428A8
:100EB000F0D828688003F7D42078DFF8A082800774
:100EC0004FF000093ED5DAF80010504611F00C0F33
:100ED00009D00068C0F3810002280BD19D48001F93
:100EE0000068400206D42868800715D5E06801280C
:100EF00009D111E0E068B8B10120C8F80000FFF79F
:100F00001BFE064605E020E1FFF716FE801B0228C7
:100F1000C0D828688007F7D52868216920F0F80034
:100F200040EAC10028600DE0C8F80090FFF704FE19
:100F3000064604E0FFF700FE801B02281FD8286841
:100F40008007F7D42078000722D5824E8448616953
:100F50006C3671B101210160FFF7EEFD074604E038
:100F6000FFF7EAFDC01B022809D830688007F7D5D3
:100F70000EE0C0F80090FFF7DFFD074605E082E0D5
:100F8000FFF7DAFDC01B02287DD830688007F7D450
:100F90002078400768D5DFF8BCB100270BF1380B8B
:100FA000DBF80000C0000BD4DBF8001041F08051EA
:100FB000CBF80010DBF80000012700F08050009013
:100FC000684E3068C00510D4306840F480703060DE
:100FD000FFF7B2FD009005E0FFF7AEFD0099401A63
:100FE000022850D83068C005F6D55A4EA068683639
:100FF00001280FD00528306810D020F001003060A3
:10100000306820F004003060A068B8B1FFF794FDAC
:1010100000900FE0306840F00100F4E740F0040079
:101020003060F7E7FFF788FD0099411A41F28830F8
:10103000814266D830688007F4D50EE0FFF77CFD6A
:10104000009007E0FFF778FD0099411A41F28830DF
:10105000814256D830688007F4D42FB1DBF80010F5
:1010600021F08051CBF80010A069D0B3DAF800204D
:101070005146C2F38102022A4AD00228484607D0CC
:10108000C8F8600000E03CE0FFF756FD04463BE096
:101090004746C8F86000FFF74FFD064605E000BF71
:1010A000FFF74AFD801B02282BD828688001F7D45F
:1010B000D4E907010843A16A2B4A490802EB014120
:1010C000626A41EA8211084394F82C1040EA0161F7
:1010D0002048001F016001203866FFF72DFD0446FF
:1010E00005E034E0FFF728FD001B022809D8286836
:1010F0008001F7D52BE000BFFFF71EFD001B022883
:1011000002D90320BDE8F88F28688001F4D41EE0DE
:101110000128F7D00868E26900F48001914214D1F7
:10112000226A00F03F0191420FD147F6C071626A16
:101130000140914209D1A26A00F44031914204D1A8
:10114000E16A00F07060884201D00120DAE70020F7
:10115000D8E700000838024000380240000047424B
:10116000800E4742007000400000FFFF10B5401E97
:10117000B0F1807F01D3012010BD4FF0E024606109
:101180000F21601700F0A3F80020A0610720206164
:10119000002010BDFEE7000010B515488AB01349C5
:1011A000016006210024C0E90114C903C0E903411C
:1011B0004FF480114161047644768476C4760477D6
:1011C0004477FFF798FA08B1FFF789F801200194F6
:1011D0000294CDE906400394009408900494059489
:1011E00069460348FFF78EF80AB010BD006400405E
:1011F00020000020094808B5016841F0080101609D
:10120000016801F008010091016841F0800101606E
:10121000006800F08000009008BD000030380240F7
:10122000FEE7704770477047FFF78CBC30B593B04E
:1012300030216846FFF70EF814210CA8FFF70AF8D2
:1012400019480025016841F080510160006800F0F4
:10125000805011901548016841F4404101600068D8
:10126000022400F4404011900120009000040190FD
:101270008001CDE9064006200890A820CDE90904A8
:1012800004200B906846FFF7C3FD0CA90F2081E8EE
:1012900031004FF4A0500F90E002109005210CA8EF
:1012A000FFF7EAFC13B030BD403802400070004048
:1012B0000548016841F47001016003494FF0006086
:1012C000803908607047000088ED00E0FEE70907FC
:1012D000090E002804DB00F1E02080F800147047BC
:1012E00000F00F0000F1E02080F8141D704702E0CC
:1012F00008C8121F08C1002AFAD1704770470020A1
:1013000001E001C1121F002AFBD170470A8852BABE
:1013100002804A8852BA42808A8852BA8280897989
:10132000C1807047FFF716FCFFF780FFFFF762FFF1
:10133000FFF732FF02210348FEF7D2FF0148FFF713
:10134000D7FAFEE7200000200000000000000000A7
:1013500001020304060708097813000800000020B2
:1013600020000000EE120008981300082000002062
:1013700048040000FE120008000000000000000009
:10138000000000000000000001000000100000004C
:08139000000000000024F4003D
:04000005080001AD41
:00000001FF
